:020000040800F2
:100000000050002055030008F5020008F702000820
:10001000F9020008FB020008FD02000800000000D1
:10002000000000000000000000000000FF020008C7
:100030000103000800000000030300080503000896
:100040009D0300089D0300089D0300089D03000810
:100050009D0300089D0300089D0300089D03000800
:100060009D0300089D0300089D0300089D030008F0
:100070009D0300089D0300089D0300089D030008E0
:100080009D0300089D0300089D0300089D030008D0
:100090009D0300089D0300089D0300089D030008C0
:1000A0009D0300089D0300089D0300089D030008B0
:1000B0009D0300089D0300089D0300089D030008A0
:1000C0009D0300089D0300089D0300089D03000890
:1000D0009D0300089D0300089D0300089D03000880
:1000E0009D0300089D0300089D0300080000000018
:1000F0000000000000000000000000000000000000
:0C01000000000000000000005FF808F1A3
:10010C0010B5054C237833B9044B13B10448AFF345
:10011C0000800123237010BD0C00002000000000A3
:10012C00300C000808B5034B1BB103490348AFF36F
:10013C00008008BD0000000010000020300C0008FA
:10014C0010B5142490B02246002108A800F062FDDE
:10015C002246002101A800F05DFD022401224FF48B
:10016C008033CDE90623CDE90D434FF4E01306A807
:10017C000A920F9300F0B6FA0F234FF48062CDE988
:10018C0001340023214601A8CDE90332059300F088
:10019C0081FC10B010BD000070B588B000F01EF9E5
:1001AC00FFF7CEFF102200210DEB020000F032FD14
:1001BC00394B4FF400519A69384842F010029A6159
:1001CC009A69012402F010020092009A9A690025A3
:1001DC0042F020029A619A69022602F020020192F2
:1001EC00019A9A6942F008029A619A6902F008022F
:1001FC000292029A9A6942F004029A619B69012266
:10020C0003F004030393039B00F060FA4FF40053D4
:10021C0004A92248CDE90434CDE9065600F070F962
:10022C0004A91F48CDE90465069400F069F91C4D3A
:10023C001A4C0221284600F043FA28B300224FF44E
:10024C000051204600F042FA642000F0EBF8012245
:10025C004FF40051204600F039FA642000F0E2F827
:10026C0000224FF40051204600F030FA642000F0D8
:10027C00D9F8204601224FF4005100F027FA4FF430
:10028C00FA7000F0CFF8D4E720464FF4005100F09C
:10029C0022FA6420F5E700BF001002400010014074
:1002AC00000C01400E4B82B09A6942F001029A6137
:1002BC009A6902F001020092009ADA6942F08052C7
:1002CC00DA61DB69074A03F080530193019B5368A1
:1002DC0023F0E06343F00073536002B0704700BF3B
:1002EC0000100240000001407047FEE7FEE7FEE709
:1002FC00FEE770477047704700F082B80F4B1A68E2
:10030C0042F001021A6059680D4A0A405A601A6894
:10031C0022F0847222F480321A601A6822F480224D
:10032C001A605A6822F4FE025A604FF41F029A6057
:10033C004FF00062034B9A60704700BF0010024000
:10034C000000FFF800ED00E0002103E00B4B5B58D0
:10035C00435004310A480B4B42189A42F6D30A4ACE
:10036C0002E0002342F8043B084B9A42F9D3FFF712
:10037C00C5FF00F02BFCFFF70FFF7047700C000857
:10038C00000000200C0000200C0000202C0000209D
:10039C00FEE7000038B50E4B054618784FF47A731B
:1003AC00B3FBF0F30B4A1068B0FBF3F000F092F8DB
:1003BC00044658B90F2D09D8024629464FF0FF3094
:1003CC0000F054F82046044B1D6038BD0120FCE7BA
:1003DC00040000200000002008000020074A08B597
:1003EC001368032043F01003136000F02DF8002075
:1003FC00FFF7D0FFFFF756FF002008BD002002409A
:10040C00034A044B11681B780B441360704700BF00
:10041C002800002004000020014B1868704700BF22
:10042C002800002038B50446FFF7F6FF0546631C8C
:10043C001EBF044B1B78E418FFF7EEFF401BA042D5
:10044C00FAD338BD04000020074A0002D36800F438
:10045C00E06023F4E0631B041B0C43F0BF6343F424
:10046C0000330343D360704700ED00E0174B70B5C9
:10047C00DC684FF0FF36C4F30224C4F10705042DE9
:10048C0004F1040328BF0425062B98BF002406FAA8
:10049C0005F388BF033C21EA0303A34006FA04F4E6
:1004AC0022EA0404002843EA0403A8BF00F16040D8
:1004BC004FEA0313B8BF064ADBB2ABBF00F561408D
:1004CC0000F00F0080F80033135470BD00ED00E015
:1004DC0014ED00E00138B0F1807F0AD2F021064B18
:1004EC00064A586082F823100020072298601A6090
:1004FC0070470120704700BF10E000E000ED00E005
:10050C002DE9F74F00242646654BDFF8A4C1DFF830
:10051C00A4E10A6832FA06F502D103B0BDE8F08F07
:10052C004FF0010808FA06F802EA080290457ED15D
:10053C004D68122D00F0A98000F28280022D00F08F
:10054C00A18076D8002D00F08880012D00F09880D5
:10055C004FF00F09FF2A93BF824606F18045083DF4
:10056C00D0F800B092BFB500D0F804B0AD0009FAD5
:10057C0005F82BEA080804FA05F588BF00F1040A0F
:10058C0048EA0505CAF80050D1F804A01AF0805FBB
:10059C004DD0444F26F00308BD6908F1804845F062
:1005AC000105BD61BD6908F5803805F001050195AF
:1005BC0006F0030B019D4FEA8B0BD8F8085009FA93
:1005CC000BF925EA0909384DA84263D005F5806579
:1005DC00A84261D005F58065A8425FD005F580651D
:1005EC00A8420CBF0325042505FA0BF545EA0905BD
:1005FC00C8F808501D681AF4803F14BF1543954382
:10060C001D605D681AF4003F14BF154395435D608F
:10061C009D681AF4801F14BF154395439D60DD68D7
:10062C001AF4001F14BF2A4325EA0202DA600136CD
:10063C006FE7032D22D0112D8AD1CC68043487E7C3
:10064C001A4FBD4209D012D8DFF86C904D4504D03A
:10065C0009F580394D457FF47BAF8C68C4B1012C12
:10066C000CBFC0F81080C0F81480082470E76545F2
:10067C00F3D07545F1D0DFF84490EBE7002467E741
:10068C00CC6865E7CC68083462E7CC680C345FE76B
:10069C0004245DE70025A7E70125A5E70225A3E7CC
:1006AC00000401400010024000080140000021102D
:1006BC000000311000003210000011100000221058
:1006CC008368194214BF0120002070470AB10161F0
:1006DC0070470904FBE7C3680B4214BF4161016119
:1006EC00704700002DE9F341054608B901203CE0B4
:1006FC000368DB0710D42B689F075DD42B681907A0
:10070C0000F194802B685A0700F1BE80E86900283C
:10071C0040F02C81002028E08F4C636803F00C0320
:10072C00042B07D0636803F00C03082B09D1636812
:10073C00DE0306D523689C03DDD56B68002BDAD16C
:10074C00D4E76B68B3F5803F12D1236843F4803350
:10075C002360FFF761FE064623689803CBD4FFF7AE
:10076C005BFE801B6428F7D9032002B0BDE8F08142
:10077C009BB9236823F480332360236823F48023FC
:10078C002360FFF749FE064623689903B3D5FFF7AC
:10079C0043FE801B6428F7D9E6E7B3F5A02F236846
:1007AC0003D143F480232360CFE723F48033236009
:1007BC00236823F48023CBE7674C636813F00C0F9A
:1007CC0007D0636803F00C03082B10D16368DA03BD
:1007DC000DD423689B0702D52B69012B86D1236886
:1007EC006A6923F0F80343EAC203236086E72A69A7
:1007FC005A4B6AB101221A60FFF70EFE06462368B7
:10080C009F07ECD4FFF708FE801B0228F7D9ABE753
:10081C001A60FFF701FE0646236898077FF56EAF56
:10082C00FFF7FAFD801B0228F6D99DE7AA694A4C0E
:10083C004B4BDAB101221A60FFF7EEFD0646636AF4
:10084C009B070DD54FF4FA52464B1B68B3FBF2F3E2
:10085C00019300BF019B5A1E0192002BF9D151E765
:10086C00FFF7DAFD801B0228E9D97DE71A60FFF754
:10087C00D3FD0646636A9F077FF544AFFFF7CCFDB7
:10088C00801B0228F6D96FE7334CE369D80024D4D7
:10089C000127E36943F08053E361E36903F080537C
:1008AC000093009B304E3368D90518D5EB68012BAB
:1008BC0026D1236A43F001032362FFF7ADFD41F219
:1008CC0088368046236A9B073FD5002F3FF41EAF26
:1008DC00E36923F08053E36118E70027E2E733680C
:1008EC0043F480733360FFF797FD80463368DA0575
:1008FC00DCD4FFF791FDA0EB08006428F6D933E7B0
:10090C00ABB9236A41F2883823F001032362236ACE
:10091C0023F004032362FFF77FFD0646236A980742
:10092C00D3D5FFF779FD801B4045F7D91CE7052B84
:10093C00236A03D143F004032362BAE723F00103D3
:10094C002362236A23F00403B6E7FFF765FDA0EBEF
:10095C000800B042B6D907E700100240000042423E
:10096C008004424200000020007000402A4B5A686C
:10097C001C4602F00C02082A3DD00023274E022808
:10098C0033602BD1FFF748FD0746236899011FD42C
:10099C002B6AB3F5803F05D16268A96822F4003256
:1009AC000A436260696A62680B4322F4741213434F
:1009BC00636001233360FFF72FFD054623689A011E
:1009CC003FF5A8AEFFF728FD401B0228F6D9CBE671
:1009DC00FFF722FDC01B0228D7D9C5E6FFF71CFD87
:1009EC00054623689B017FF595AEFFF715FD401B6F
:1009FC000228F6D9B8E601283FF4B7AE58682B6A3E
:100A0C0000F480329A427FF471AE6B6A00F470107D
:100A1C00C01A18BF0120A8E6001002406000424234
:100A2C0030B5184B87B002AC03F11005224618689C
:100A3C005968083303C2AB421446F7D140F2012384
:100A4C001149ADF804304B6803F00C02082A17D199
:100A5C00C3F3834206A80244DB0312F8102C0CD516
:100A6C004B680A48C3F34043504306AA134413F897
:100A7C00143CB0FBF3F007B030BD05485043FAE727
:100A8C000248F8E7480C00080010024000127A00F7
:100A9C0000093D002DE9F0410D46044610B9012036
:100AAC00BDE8F081444A136803F007038B4228D356
:100ABC0021688E0730D4CA0743D43F4A136803F029
:100ACC000703AB4265D822683C4D12F0040F6CD181
:100ADC00130706D56B68226923F4605343EAC203FB
:100AEC006B60FFF79DFF6B68354AC3F30313D35C50
:100AFC00D840344B1860344B1868FFF74BFC00207F
:100B0C00CEE7136823F007030B431360136803F05D
:100B1C0007038B42C3D1CBE7284B11F0040F1EBF48
:100B2C005A6842F4E0625A60080742BF5A6842F4BD
:100B3C0060525A605A68A06822F0F00202435A6070
:100B4C00B9E762681D4E012A33681AD113F4003FCD
:100B5C00A5D0736841F2883823F003031343736004
:100B6C00FFF75AFC07467368626803F00C03B3EB9B
:100B7C00820FA2D0FFF750FCC01B4045F3D90320D5
:100B8C008EE7022A02D113F0007FE1E713F0020F87
:100B9C00DEE7136823F007032B431360136803F09D
:100BAC000703AB427FF47BAF8DE76B68E16823F4FE
:100BBC00E0630B436B608BE70020024000100240A7
:100BCC00580C0008000000200800002070B500251B
:100BDC000C4E0D4CA41BA410A54209D100F022F818
:100BEC0000250A4E0A4CA41BA410A54205D170BDC9
:100BFC0056F8253098470135EEE756F825309847DA
:100C0C000135F2E7680C0008680C0008680C000855
:100C1C006C0C000803460244934200D1704703F861
:100C2C00011BF9E7F8B500BFF8BC08BC9E4670473D
:0C0C3C00F8B500BFF8BC08BC9E4670472D
:100C480002030405060708090A0B0C0D0E0F101005
:100C58000000000000000000010203040607080964
:040C6800310100084E
:040C6C000D0100086E
:0C0C70000024F40001000000100000004F
:040000050800035597
:00000001FF
