:020000040800F2
:1000000000800020410B0008B90A0008C70A000858
:10001000CD0A0008D30A0008D90A00080000000031
:10002000000000000000000000000000DF0A0008DF
:10003000ED0A000800000000FB0A0008090B000898
:10004000910B0008910B0008910B0008910B000820
:10005000910B0008910B0008910B0008910B000810
:10006000910B0008910B0008910B0008910B000800
:10007000910B0008910B0008910B0008910B0008F0
:10008000910B000800000000910B0008910B000884
:10009000910B0008910B0008910B0008910B0008D0
:1000A000910B0008910B0008910B0008910B0008C0
:1000B000910B0008910B0008910B0008910B0008B0
:1000C000910B0008910B0008910B0008910B0008A0
:1000D000910B0008910B0008910B0008910B000890
:1000E000910B0008910B0008910B0008910B000880
:1000F000910B0008910B0008910B00080000000014
:1001000000000000910B000800000000910B0008A7
:10011000910B000800000000910B0008910B0008F3
:10012000910B0008910B0008910B0008910B00083F
:10013000910B00080000000000000000910B000877
:10014000910B0008910B0008000000000000000067
:10015000000000000000000000000000000000009F
:10016000000000000000000000000000910B0008EB
:10017000910B0008000000000000000000000000DB
:1001800000000000910B00080000000000000000CB
:10019000000000000000000000000000000000005F
:1001A0000000000000000000910B0008910B000807
:1001B000910B0008910B0008910B00080000000053
:1001C00000000000910B000800000000000000008B
:0801D000910B0008910B0008DF
:1001D80010B5054C237833B9044B13B10448AFF379
:1001E80000800123237010BD0C00002000000000D7
:1001F8001846000808B5034B1BB103490348AFF381
:10020800008008BD0000000010000020184600080B
:1002180053B94AB9002908BF00281CBF4FF0FF3165
:100228004FF0FF3000F072B9ADF1080C6DE904CE63
:1002380000F006F8DDF804E0DDE9022304B07047B9
:100248002DE9F047089E04468846002B4BD18A4288
:10025800154667D9B2FA82F24AB1C2F1200701FA0B
:1002680002F320FA07F7954047EA030894404FEA5B
:10027800154E230CB8FBFEF71FFA85FC0EFB1788FA
:1002880043EA084307FB0CF1994209D9EB1807F137
:10029800FF3080F01B81994240F21881023F2B44C5
:1002A8005B1AA4B2B3FBFEF00EFB103344EA03441E
:1002B80000FB0CFCA44509D92C1900F1FF3380F090
:1002C8000781A44540F2048102382C4440EA0740E3
:1002D800A4EB0C0400271EB1D4400023C6E9004358
:1002E8003946BDE8F0878B4209D9002E00F0EB8033
:1002F8000027C6E9000138463946BDE8F087B3FA59
:1003080083F7002F47D18B4202D3824200F2FA8052
:10031800841A61EB030301209846002EE0D0C6E959
:100328000048DDE702B9FFDEB2FA82F2002A40F0A7
:100338008F80491B4FEA154E1FFA85F80127B1FB3C
:10034800FEFC230C0EFB1C1143EA014308FB0CF1D5
:10035800994207D9EB180CF1FF3002D2994200F20A
:10036800CD808446591AA3B2B1FBFEF00EFB1014DF
:1003780043EA044408FB00F8A04507D92C1900F10A
:10038800FF3302D2A04500F2B6801846A4EB080459
:1003980040EA0C409FE7C7F1200CBB4022FA0CFE54
:1003A8004EEA030E01FA07F420FA0CF521FA0CF3D1
:1003B8004FEA1E482543B3FBF8F92C0C08FB193308
:1003C8001FFA8EFA44EA034309FB0AF49C4202FA34
:1003D80007F200FA07F10BD91EEB030309F1FF300E
:1003E80080F087809C4240F28480A9F1020973441E
:1003F8001B1BADB2B3FBF8F008FB103345EA03440E
:1004080000FB0AFAA24508D91EEB040400F1FF33E9
:100418006BD2A24569D90238744440EA0940A0FB6E
:100428000289A4EB0A044C45C2464B4654D351D02A
:10043800002E69D0B1EB0A0564EB030404FA0CFC46
:10044800FD40FC404CEA0505C6E90054002747E793
:10045800C2F1200320FA03F7954001FA02F021FACD
:1004680003F34FEA154E3843010CB3FBFEF71FFAAE
:1004780085F80EFB173341EA034107FB08F38B426B
:1004880004FA02F407D9691807F1FF3C2FD28B420E
:100498002DD9023F2944CB1A81B2B3FBFEF00EFBE3
:1004A800103341EA034100FB08F38B4207D969186E
:1004B80000F1FF3C17D28B4215D902382944C91ADA
:1004C80040EA07473BE73746304609E70746E7E68D
:1004D8001846FBE64145ABD2B8EB020A69EB0E02BF
:1004E80001381346A4E76046E9E7184695E76746EA
:1004F800D1E781467CE702382C4447E7ACF1020C8F
:100508002B442FE7384608E73746E9E6704700BF2F
:1005180080B592B002AF00F038FB00F0A9F800F007
:1005280099F900F04BF900F009F900237B877B8FDC
:100538001B0A9BB2DBB287F82C307B8FDBB287F8C3
:100548002D3097F82C3087F8243097F82D3087F81D
:100558002530412387F82630422387F82730432364
:1005680087F82830442387F82930A02399B207F167
:1005780024024FF0FF33009306233A4800F0D6FEDA
:10058800034687F8393097F83930012B03D13548BD
:1005980001F0D2F878634FF480714FF0904000F08A
:1005A800EDFD034687F8333097F83330002B4FD1F1
:1005B8002C4801F0B3F8034687F83230294801F097
:1005C8009FF8034687F83130A02399B207F12C022F
:1005D8004FF0FF3300930223224800F0A7FE0346A2
:1005E80087F8393097F83930012B03D11D4801F0CD
:1005F800A3F87863A12399B23A1D4FF47A73009354
:100608002023184800F086FF034687F8393097F80A
:100618003930012B03D1134801F08EF87863391D66
:100628004FF0FF330422104802F022FB0023FB6343
:100638000AE04FF480710D4800F0D0FD642000F00E
:1006480015FBFB6B0133FB63FB6B092BF1DD04E04E
:100658004FF48071054800F0C1FD4FF47A7000F046
:1006680005FB98E7280000207400002000040048DB
:1006780080B5A4B000AF07F158033822002118460E
:1006880003F0BEFF07F1440300221A605A609A6023
:10069800DA601A613B4644220021184603F0B0FF95
:1006A800002001F0CDFA0223BB654FF480737B660E
:1006B8004023BB6602237B670223BB670423FB67D7
:1006C8005523C7F880300223C7F884300223C7F8BF
:1006D80088300223C7F88C3007F15803184601F018
:1006E80053FB0346002B01D000F002F90F237B6473
:1006F8000323BB640023FB6400233B6500237B6565
:1007080007F144030821184601F056FE0346002B62
:1007180001D000F0EDF842233B600023BB600023CA
:10072800BB613B46184602F063F80346002B01D034
:1007380000F0DEF800BF9037BD4680BD80B500AF41
:100748001B4B1C4A1A601A4B1B4A5A60184B002252
:100758009A60174B0122DA60154B00221A61144B7C
:1007680000225A61124B00229A61114B0022DA6171
:100778000F4B00221A620E4800F049FD0346002B79
:1007880001D000F0B5F80021094801F0C1F903468D
:10079800002B01D000F0ACF80021054801F003FA65
:1007A8000346002B01D000F0A3F800BF80BD00BFB6
:1007B8002800002000540040FBA7A03080B500AFFF
:1007C800224B234A1A60214B4FF4E1325A601F4BE7
:1007D80000229A601D4B0022DA601C4B00221A612D
:1007E8001A4B0C225A61194B00229A61174B0022AE
:1007F800DA61164B00221A62144B00225A62134B1C
:1008080000229A62114802F0E3F90346002B01D056
:1008180000F06EF800210D4803F0E9FD0346002BB7
:1008280001D000F065F80021084803F01EFE0346D9
:10083800002B01D000F05CF8044803F09FFD03464C
:10084800002B01D000F054F800BF80BD74000020D8
:100858000044004080B588B000AF07F10C030022C7
:100868001A605A609A60DA601A611F4BDB6C1E4A84
:1008780043F00103D3641C4BDB6C03F00103BB6042
:10088800BB68194BDB6C184A43F00203D364164B60
:10089800DB6C03F002037B607B6800224FF48071FD
:1008A800124800F083FC4FF48073FB6000233B6127
:1008B80001237B6107F10C0319464FF0904000F0CB
:1008C800DBFA4FF48073FB6001233B6100237B61FB
:1008D8000023BB6107F10C031946044800F0CCFA69
:1008E80000BF2037BD4680BD00100240000400480C
:1008F80080B400AF00BFBD465DF8047B70470000C0
:1009080080B400AF054B9B68044A43F4804393606E
:1009180000BFBD465DF8047B704700BF0070004013
:1009280080B582B000AF0F4B1B6E0E4A43F0010337
:1009380013660C4B1B6E03F001037B607B68094B4D
:100948009B6D084A43F080539365064B9B6D03F0FB
:1009580080533B603B68FFF7D3FF00BF0837BD46B5
:1009680080BD00BF0010024080B58AB000AF78603B
:1009780007F1140300221A605A609A60DA601A615B
:100988007B681B68264A934245D1264BDB6C254A77
:1009980043F00103D364234BDB6C03F001033B6199
:1009A8003B69204BDB6C1F4A43F00203D3641D4BA9
:1009B800DB6C03F00203FB60FB684FF400437B61D0
:1009C8001223BB610123FB6100233B6204237B628A
:1009D80007F1140319464FF0904000F04DFA8023B8
:1009E8007B611223BB610123FB6100233B6204236B
:1009F8007B6207F1140319460B4800F03DFA094BD6
:100A08009B6D084A43F400139365064B9B6D03F4F2
:100A18000013BB60BB6800BF2837BD4680BD00BF60
:100A280000540040001002400004004880B58AB01D
:100A380000AF786007F1140300221A605A609A60C8
:100A4800DA601A617B681B68174A934228D1174BF2
:100A58009B6D164A43F400339365144B9B6D03F466
:100A680000333B613B69114BDB6C104A43F00103D7
:100A7800D3640E4BDB6C03F00103FB60FB680C23B3
:100A88007B610223BB610023FB6100233B620723D8
:100A98007B6207F1140319464FF0904000F0ECF91F
:100AA80000BF2837BD4680BD00440040001002400A
:100AB80080B400AF00BFBD465DF8047B704780B4CA
:100AC80000AFFEE780B400AFFEE780B400AFFEE7FA
:100AD80080B400AFFEE780B400AF00BFBD465DF84C
:100AE800047B704780B400AF00BFBD465DF8047B4F
:100AF800704780B400AF00BFBD465DF8047B704707
:100B080080B500AF00F094F800BF80BD80B400AF9E
:100B1800084BD3F88830074A43F47003C2F888308A
:100B2800044B4FF000629A6000BFBD465DF8047B3D
:100B3800704700BF00ED00E00D4885460D480E499E
:100B48000E4A002302E0D458C4500433C4188C421F
:100B5800F9D30B4A0B4C002301E013600432A24284
:100B6800FBD3FFF7D3FF03F027FDFFF7D1FCFEE728
:100B780000800020000000200C00002068460008CB
:100B88000C00002004010020FEE780B582B000AF11
:100B98000023FB71032000F03DF9002000F00EF85F
:100BA8000346002B02D00123FB7101E0FFF7B8FEDA
:100BB800FB7918460837BD4680BD000080B584B073
:100BC80000AF78600023FB73164B1B68002B22D004
:100BD800154B1A68134B1B684FF47A71B1FBF3F38A
:100BE800B2FBF3F3184600F03AF90346002B0FD195
:100BF8007B680F2B09D8002279684FF0FF3000F08E
:100C080014F90A4A7B68136007E00123FB7304E0C8
:100C18000123FB7301E00123FB73FB7B18461037AC
:100C2800BD4680BD08000020000000200400002010
:100C380080B400AF054B1A68054B1B681344034A80
:100C4800136000BFBD465DF8047B704700010020BB
:100C58000800002080B400AF034B1B681846BD464F
:100C68005DF8047B704700BF0001002080B584B0A8
:100C780000AF7860FFF7EEFFB8607B68FB60FB6849
:100C8800B3F1FF3F04D0094B1B68FA681344FB60BB
:100C980000BFFFF7DFFF0246BB68D31AFA689A4223
:100CA800F7D800BF1037BD4680BD00BF0800002040
:100CB80080B485B000AF78607B6803F00703FB6001
:100CC8000C4BDB68BB60BA684FF6FF031340BB6090
:100CD800FB681A02BB68134343F0BF6343F4003355
:100CE800BB60044ABB68D36000BF1437BD465DF8DB
:100CF800047B704700ED00E080B400AF044BDB6874
:100D08001B0A03F007031846BD465DF8047B7047CD
:100D180000ED00E080B483B000AF03463960FB719A
:100D280097F90730002B0ADB3B68DAB20C4997F9D0
:100D380007301201D2B20B4483F800230AE03B6863
:100D4800DAB20849FB7903F00F03043B1201D2B26F
:100D58000B441A7600BF0C37BD465DF8047B70471C
:100D680000E100E000ED00E080B489B000AFF86079
:100D7800B9607A60FB6803F00703FB61FB69C3F1A4
:100D88000703042B28BF0423BB61FB690433062B2C
:100D980002D9FB69033B00E000237B614FF0FF327F
:100DA800BB6902FA03F3DA43BB681A407B699A40CD
:100DB8004FF0FF317B6901FA03F3D9437B680B409D
:100DC800134318462437BD465DF8047B704700007E
:100DD80080B582B000AF78607B68013BB3F1807F5B
:100DE80001D301230FE00A4A7B68013B53600F21BE
:100DF8004FF0FF30FFF78EFF054B00229A60044B3F
:100E080007221A60002318460837BD4680BD00BF78
:100E180010E000E080B582B000AF78607868FFF736
:100E280047FF00BF0837BD4680BD80B586B000AF1C
:100E38000346B9607A60FB73FFF75EFF78617A68F2
:100E4800B9687869FFF790FF024697F90F301146A5
:100E58001846FFF75FFF00BF1837BD4680BD80B555
:100E680082B000AF78607868FFF7B2FF0346184693
:100E78000837BD4680BD000080B487B000AF7860F9
:100E8800396000237B615AE13B681A6801217B695C
:100E980001FA03F31340FB60FB68002B00F04C8160
:100EA8003B685B68012B0BD03B685B68022B07D063
:100EB8003B685B68112B03D03B685B68122B30D111
:100EC8007B689B683B617B695B00032202FA03F342
:100ED800DB433A6913403B613B68DA687B695B0036
:100EE80002FA03F33A6913433B617B683A699A60F3
:100EF8007B685B683B6101227B6902FA03F3DB4391
:100F08003A6913403B613B685B681B0903F00102C7
:100F18007B6902FA03F33A6913433B617B683A69D8
:100F28005A607B68DB683B617B695B00032202FADD
:100F380003F3DB433A6913403B613B689A687B697A
:100F48005B0002FA03F33A6913433B617B683A6931
:100F5800DA603B685B68022B03D03B685B68122B46
:100F680023D17B69DA087B68083253F822303B6169
:100F78007B6903F007039B000F2202FA03F3DB43AC
:100F88003A6913403B613B681A697B6903F00703C0
:100F98009B0002FA03F33A6913433B617B69DA0861
:100FA8007B680832396943F822107B681B683B610B
:100FB8007B695B00032202FA03F3DB433A691340BF
:100FC8003B613B685B6803F003027B695B0002FAE4
:100FD80003F33A6913433B617B683A691A603B68DB
:100FE8005B6803F08053002B00F0A6805B4B1B6E00
:100FF8005A4A43F001031366584B1B6E03F0010372
:10100800BB60BB68564A7B699B08023352F82330A1
:101018003B617B6903F003039B000F2202FA03F391
:10102800DB433A6913403B617B68B3F1904F1FD0B3
:101038007B684C4A934219D07B684B4A934213D041
:101048007B684A4A93420DD07B68494A934207D04D
:101058007B68484A934201D105230AE0062308E049
:10106800042306E0032304E0022302E0012300E056
:1010780000237A6902F00302920093403A6913430D
:101088003B6137497B699B0802333A6941F8232061
:10109800394B1B683B61FB68DB433A6913403B6192
:1010A8003B685B6803F48033002B03D03A69FB6824
:1010B80013433B61304A3B6913602F4B5B683B61CC
:1010C800FB68DB433A6913403B613B685B6803F4A8
:1010D8000033002B03D03A69FB6813433B61264A6F
:1010E8003B695360244B9B683B61FB68DB433A696F
:1010F80013403B613B685B6803F48013002B03D00B
:101108003A69FB6813433B611B4A3B6993601A4B7E
:10111800DB683B61FB68DB433A6913403B613B6832
:101128005B6803F40013002B03D03A69FB68134390
:101138003B61114A3B69D3607B6901337B613B6842
:101148001A687B6922FA03F3002B7FF49DAE00BF77
:101158001C37BD465DF8047B704700BF0010024095
:10116800000001400004004800080048000C004846
:1011780000100048001400480004014080B485B005
:1011880000AF78600B467B807B681A697B881340C8
:10119800002B02D00123FB7301E00023FB73FB7BD0
:1011A80018461437BD465DF8047B704780B483B099
:1011B80000AF78600B467B8013467B707B78002BF2
:1011C80003D07A887B689A6102E07A887B689A62A1
:1011D80000BF0C37BD465DF8047B704780B483B010
:1011E80000AF78600B467B807B685A697B88134028
:1011F800002B03D07A887B689A6202E07A887B6841
:101208009A6100BF0C37BD465DF8047B704780B516
:1012180082B000AF78607B68002B01D1012381E0A8
:101228007B6893F84130DBB2002B06D17B68002243
:1012380083F840207868FFF797FB7B68242283F8BF
:1012480041207B681B681A687B681B6822F00102D2
:101258001A607B685A687B681B6822F070621A61A2
:101268007B681B689A687B681B6822F400429A6056
:101278007B68DB68012B07D17B689A687B681B68F1
:1012880042F400429A6006E07B689A687B681B68B3
:1012980042F404429A607B68DB68022B04D17B68C5
:1012A8001B684FF400625A607B681B685B687A6849
:1012B800126843F0007343F4004353607B681B6873
:1012C800DA687B681B6822F40042DA607B681A6976
:1012D8007B685B6942EA03017B689B691A027B6849
:1012E8001B680A43DA607B68D9697B681A6A7B687D
:1012F8001B680A431A607B681B681A687B681B684E
:1013080042F001021A607B6800225A647B6820223E
:1013180083F841207B6800221A637B68002283F8E7
:101328004220002318460837BD4680BD80B588B0E6
:1013380002AFF8607A601A460B467B8113463B8100
:10134800FB6893F84130DBB2202B40F0DA80FB6871
:1013580093F84030012B01D10223D3E0FB6801222E
:1013680083F84020FFF776FC78617B6900931923A6
:1013780001224FF40041F86800F00EFA0346002BF2
:1013880001D00123BEE0FB68212283F84120FB68DD
:10139800102283F84220FB6800225A64FB687A68AE
:1013A8005A62FB683A895A85FB6800225A63FB68CF
:1013B8005B8D9BB2FF2B0ED9FB68FF221A85FB6859
:1013C8001B8DDAB27989514B00934FF08073F8681E
:1013D80000F070FB6CE0FB685B8D9AB2FB681A85C5
:1013E800FB681B8DDAB27989484B00934FF0007384
:1013F800F86800F05FFB5BE07A69396AF86800F02A
:101408000BFA0346002B01D001237BE0FB685B6AE3
:101418001A78FB681B689A62FB685B6A5A1CFB684F
:101428005A62FB685B8D9BB2013B9AB2FB685A8596
:10143800FB681B8D013B9AB2FB681A85FB685B8DC4
:101448009BB2002B34D0FB681B8D002B30D17B69FD
:1014580000933B6A00228021F86800F09DF903465A
:10146800002B01D001234DE0FB685B8D9BB2FF2B65
:101478000ED9FB68FF221A85FB681B8DDAB27989C1
:10148800002300934FF08073F86800F013FB0FE01F
:10149800FB685B8D9AB2FB681A85FB681B8DDAB214
:1014A8007989002300934FF00073F86800F002FB7D
:1014B800FB685B8D9BB2002B9ED17A69396AF8680C
:1014C80000F0EAF90346002B01D001231AE0FB687B
:1014D8001B682022DA61FB681B685968FB681A6878
:1014E8000B4B0B405360FB68202283F84120FB68BC
:1014F800002283F84220FB68002283F84020002362
:1015080000E0022318461837BD4680BD0020008041
:1015180000E800FE80B588B002AFF8607A601A462D
:101528000B467B8113463B81FB6893F84130DBB265
:10153800202B40F0DB80FB6893F84030012B01D171
:101548000223D4E0FB68012283F84020FFF782FBE6
:1015580078617B690093192301224FF40041F868F0
:1015680000F01AF90346002B01D00123BFE0FB6805
:10157800222283F84120FB68102283F84220FB686E
:1015880000225A64FB687A685A62FB683A895A856D
:10159800FB6800225A63FB685B8D9BB2FF2B0ED958
:1015A800FB68FF221A85FB681B8DDAB27989524BDA
:1015B80000934FF08073F86800F07CFA6DE0FB68E8
:1015C8005B8D9AB2FB681A85FB681B8DDAB2798944
:1015D800494B00934FF00073F86800F06BFA5CE039
:1015E8007A69396AF86800F093F90346002B01D04C
:1015F80001237CE0FB681B685A6AFB685B6AD2B20D
:101608001A70FB685B6A5A1CFB685A62FB681B8D80
:10161800013B9AB2FB681A85FB685B8D9BB2013B64
:101628009AB2FB685A85FB685B8D9BB2002B34D05D
:10163800FB681B8D002B30D17B6900933B6A00222D
:101648008021F86800F0A8F80346002B01D0012398
:101658004DE0FB685B8D9BB2FF2B0ED9FB68FF2228
:101668001A85FB681B8DDAB27989002300934FF045
:101678008073F86800F01EFA0FE0FB685B8D9AB281
:10168800FB681A85FB681B8DDAB279890023009301
:101698004FF00073F86800F00DFAFB685B8D9BB2A1
:1016A800002B9DD17A69396AF86800F0F5F803468D
:1016B800002B01D001231AE0FB681B682022DA61A5
:1016C800FB681B685968FB681A680C4B0B40536031
:1016D800FB68202283F84120FB68002283F842201F
:1016E800FB68002283F84020002300E0022318460C
:1016F8001837BD4680BD00BF0024008000E800FE0A
:1017080080B483B000AF78607B6893F84130DBB277
:1017180018460C37BD465DF8047B704780B483B02B
:1017280000AF78607B6893F84230DBB218460C371C
:10173800BD465DF8047B704780B483B000AF786025
:101748007B685B6C18460C37BD465DF8047B7047B8
:1017580080B483B000AF78607B681B689B6903F036
:101768000203022B03D17B681B6800229A627B6804
:101778001B689B6903F00103012B07D07B681B687A
:101788009A697B681B6842F001029A6100BF0C37B6
:10179800BD465DF8047B704780B584B000AFF86043
:1017A800B9603B601346FB7122E03B68B3F1FF3F31
:1017B8001ED0FFF74FFA0246BB69D31A3A689A421D
:1017C80002D33B68002B13D1FB685B6C43F020020B
:1017D800FB685A64FB68202283F84120FB680022DA
:1017E80083F84220FB68002283F8402001230FE0A1
:1017F800FB681B689A69BB681340BA689A420CBFB9
:1018080001230023DBB21A46FB799A42CDD000238C
:1018180018461037BD4680BD80B584B000AFF8606B
:10182800B9607A602CE07A68B968F86800F0DCF88A
:101838000346002B01D001232AE0BB68B3F1FF3F28
:101848001ED0FFF707FA02467B68D31ABA689A4295
:1018580002D3BB68002B13D1FB685B6C43F02002FA
:10186800FB685A64FB68202283F84120FB68002249
:1018780083F84220FB68002283F84020012307E018
:10188800FB681B689B6903F00203022BCBD1002382
:1018980018461037BD4680BD80B584B000AFF860EB
:1018A800B9607A6028E07A68B968F86800F09CF84E
:1018B8000346002B01D0012326E0FFF7CBF90246AF
:1018C8007B68D31ABA689A4202D3BB68002B13D13B
:1018D800FB685B6C43F02002FB685A64FB682022BB
:1018E80083F84120FB68002283F84220FB6800222D
:1018F80083F84020012307E0FB681B689B6903F01D
:101908002003202BCFD1002318461037BD4680BDB9
:1019180080B584B000AFF860B9607A6055E07A6845
:10192800B968F86800F060F80346002B01D001237D
:1019380053E0FB681B689B6903F02003202B29D127
:10194800FB681B689B6903F00403042B05D1FB6843
:101958001B8D002B01D000233FE0FB681B68202271
:10196800DA61FB681B685968FB681A681D4B0B40F5
:101978005360FB6800225A64FB68202283F84120E8
:10198800FB68002283F84220FB68002283F840208D
:10199800012322E0FFF75EF902467B68D31ABA6892
:1019A8009A4202D3BB68002B0FD1FB685B6C43F0F3
:1019B8002002FB685A64FB68202283F84120FB68F8
:1019C800002283F84020012307E0FB681B689B691D
:1019D80003F00403042BA2D1002318461037BD4698
:1019E80080BD00BF00E800FE80B584B000AFF8609D
:1019F800B9607A60FB681B689B6903F01003102BC1
:101A080051D122E0BB68B3F1FF3F1ED0FFF722F9A6
:101A180002467B68D31ABA689A4202D3BB68002B85
:101A280013D1FB685B6C43F02002FB685A64FB68C7
:101A3800202283F84120FB68002283F84220FB68BB
:101A4800002283F8402001232EE0FB681B689B6975
:101A580003F02003202BD5D1FB681B681022DA6124
:101A6800FB681B682022DA61F868FFF771FEFB68E3
:101A78001B685968FB681A680D4B0B405360FB687C
:101A88005B6C43F00402FB685A64FB68202283F80D
:101A98004120FB68002283F84220FB68002283F87B
:101AA8004020012300E0002318461037BD4680BDC2
:101AB80000E800FE80B485B000AFF8607B600B469C
:101AC8007B8113467B72FB681B685A68BB695B0D98
:101AD80003F480610D4B0B43DB4302EA03017B896E
:101AE800C3F309027B7A1B0403F47F031A437B6860
:101AF8001A43BB691A43FB681B680A435A6000BF54
:101B08001437BD465DF8047B704700BFFF63FF03D1
:101B180080B483B000AF786039607B6893F8413057
:101B2800DBB2202B38D17B6893F84030012B01D1F0
:101B3800022332E07B68012283F840207B6824225C
:101B480083F841207B681B681A687B681B6822F051
:101B580001021A607B681B681A687B681B6822F49C
:101B680080521A607B681B6819687B681B683A6832
:101B78000A431A607B681B681A687B681B6842F016
:101B880001021A607B68202283F841207B680022CA
:101B980083F84020002300E0022318460C37BD4696
:101BA8005DF8047B704780B485B000AF7860396019
:101BB8007B6893F84130DBB2202B39D17B6893F8EE
:101BC8004030012B01D1022333E07B68012283F8E6
:101BD80040207B68242283F841207B681B681A68B0
:101BE8007B681B6822F001021A607B681B681B680F
:101BF800FB60FB6823F47063FB603B681B02FA68B8
:101C08001343FB607B681B68FA681A607B681B6873
:101C18001A687B681B6842F001021A607B68202200
:101C280083F841207B68002283F84020002300E0ED
:101C3800022318461437BD465DF8047B7047000040
:101C480080B485B000AF78607B68002B41D14B4BE6
:101C58001B6803F4C063B3F5806F31D1474BD3F8E9
:101C68008030464A23F48073C2F88030434B1B68A7
:101C780023F4C063414A43F400731360404B1B686C
:101C8800322202FB03F33F4AA2FB03239B0C0133DE
:101C9800FB6002E0FB68013BFB60384B5B6903F4C7
:101CA8008063B3F5806F02D1FB68002BF2D1334B10
:101CB8005B6903F48063B3F5806F58D1032357E061
:101CC8002E4BD3F880302D4A23F48073C2F880302D
:101CD8004DE07B68B3F5007F41D1284B1B6803F4C6
:101CE800C063B3F5806F31D1244BD3F88030234AD9
:101CF80043F48073C2F88030204B1B6823F4C06320
:101D08001E4A43F4007313601D4B1B68322202FB0A
:101D180003F31C4AA2FB03239B0C0133FB6002E084
:101D2800FB68013BFB60154B5B6903F48063B3F50B
:101D3800806F02D1FB68002BF2D1104B5B6903F472
:101D48008063B3F5806F12D1032311E00B4BD3F8F6
:101D580080300A4A43F48073C2F8803007E0074BAA
:101D68001B6823F4C063054A43F4806313600023AF
:101D780018461437BD465DF8047B70470070004074
:101D88000000002083DE1B4380B588B000AF786078
:101D98007B68002B01D1012308E37B681B6803F0F3
:101DA8000103002B75D0A34B9B6803F00C03BB61A8
:101DB800A04BDB6803F003037B61BB690C2B02D1EA
:101DC8007B69032B02D0BB69082B0BD1994B1B688D
:101DD80003F40033002B5BD07B685B68002B57D182
:101DE8000123E3E27B685B68B3F5803F06D1914B42
:101DF8001B68904A43F4803313601DE07B685B687E
:101E0800B3F5A02F0CD18B4B1B688A4A43F480236F
:101E18001360884B1B68874A43F4803313600BE0D8
:101E2800844B1B68834A23F480331360814B1B68FF
:101E3800804A23F4802313607B685B68002B13D0EF
:101E4800FEF708FF386108E0FEF704FF02463B6929
:101E5800D31A642B01D90323A8E2764B1B6803F439
:101E68000033002BF0D014E0FEF7F4FE386108E0F0
:101E7800FEF7F0FE02463B69D31A642B01D903230F
:101E880094E26C4B1B6803F40033002BF0D100E0A4
:101E980000BF7B681B6803F00203002B75D0654BFD
:101EA8009B6803F00C03BB61624BDB6803F0030320
:101EB8007B61BB690C2B02D17B69022B02D0BB6909
:101EC800042B1FD15B4B1B6803F48063002B05D0E8
:101ED8007B68DB68002B01D1012367E2554B5B6807
:101EE80023F0FE427B681B691B06524913434B6073
:101EF800514B1B681846FEF761FE0346002B43D082
:101F0800012353E27B68DB68002B23D0494B1B6815
:101F1800484A43F480731360FEF79CFE386108E07A
:101F2800FEF798FE02463B69D31A022B01D9032318
:101F38003CE2404B1B6803F48063002BF0D03D4B20
:101F48005B6823F0FE427B681B691B063949134313
:101F58004B601AE0374B1B68364A23F480731360D2
:101F6800FEF778FE386108E0FEF774FE02463B692A
:101F7800D31A022B01D9032318E22E4B1B6803F452
:101F88008063002BF0D100E000BF7B681B6803F082
:101F98000803002B3CD07B685B69002B1CD0254BC9
:101FA800D3F89430234A43F00103C2F89430FEF783
:101FB80051FE386108E0FEF74DFE02463B69D31A30
:101FC800022B01D90323F1E11A4BD3F8943003F023
:101FD8000203002BEFD01BE0164BD3F89430154AC0
:101FE80023F00103C2F89430FEF734FE386108E0AC
:101FF800FEF730FE02463B69D31A022B01D90323B0
:10200800D4E10C4BD3F8943003F00203002BEFD14A
:102018007B681B6803F00403002B00F0AB800023EF
:10202800FB77044B9B6D03F08053002B06D10123F3
:1020380005E000BF00100240040000200023002B30
:102048000DD0AF4B9B6DAE4A43F080539365AC4BBC
:102058009B6D03F08053FB60FB680123FB77A94B62
:102068001B6803F48073002B18D1A64B1B68A54A84
:1020780043F480731360FEF7EDFD386108E0FEF766
:10208800E9FD02463B69D31A022B01D903238DE1EE
:102098009C4B1B6803F48073002BF0D07B689B6813
:1020A800012B08D1964BD3F89030954A43F00103A1
:1020B800C2F8903024E07B689B68052B10D1904BC8
:1020C800D3F890308E4A43F00403C2F890308C4B1A
:1020D800D3F890308A4A43F00103C2F890300FE0F9
:1020E800874BD3F89030864A23F00103C2F890302A
:1020F800834BD3F89030824A23F00403C2F890301F
:102108007B689B68002B16D0FEF7A4FD38610AE0B7
:10211800FEF7A0FD02463B69D31A41F2883293428A
:1021280001D9032342E1764BD3F8903003F0020340
:10213800002BEDD015E0FEF78DFD38610AE0FEF7C3
:1021480089FD02463B69D31A41F28832934201D98C
:1021580003232BE16A4BD3F8903003F00203002BE2
:10216800EDD1FB7F012B05D1654B9B6D644A23F0B4
:10217800805393657B681B6803F02003002B3CD0D9
:102188007B689B69002B1CD05D4BD3F898305C4A68
:1021980043F00103C2F89830FEF75CFD386108E0AF
:1021A800FEF758FD02463B69D31A022B01D90323D7
:1021B800FCE0534BD3F8983003F00203002BEFD028
:1021C8001BE04F4BD3F898304D4A23F00103C2F877
:1021D8009830FEF73FFD386108E0FEF73BFD024608
:1021E8003B69D31A022B01D90323DFE0444BD3F810
:1021F800983003F00203002BEFD17B68DB69002BDA
:1022080000F0D3803E4B9B6803F00C030C2B00F0CE
:102218008D807B68DB69022B5AD1394B1B68384AA1
:1022280023F080731360FEF715FD386108E0FEF7B0
:1022380011FD02463B69D31A022B01D90323B5E0ED
:102248002F4B1B6803F00073002BF0D12C4BDA687E
:102258002D4B13407A68116A7A68526A013A120162
:1022680011437A68926A120211437A68126B520813
:10227800013A520511437A68526B5208013A5206E4
:1022880011437A68D26AD2060A431D491343CB60C8
:102298001B4B1B681A4A43F080731360184BDB68AA
:1022A800174A43F08073D360FEF7D4FC386108E026
:1022B800FEF7D0FC02463B69D31A022B01D903234F
:1022C80074E00F4B1B6803F00073002BF0D06CE038
:1022D8000B4B1B680A4A23F080731360084BDB68BA
:1022E800074A23F00303D360054BDB68044A23F055
:1022F800887323F48033D360FEF7ACFC38610EE0BA
:1023080000100240007000400C809F01FEF7A2FC04
:1023180002463B69D31A022B01D9032346E0254B19
:102328001B6803F00073002BF0D13EE07B68DB698B
:10233800012B01D1012339E01E4BDB687B617B69EE
:1023480003F003027B681B6A9A422CD17B6903F075
:10235800F0027B685B6A013B1B019A4223D17B69CF
:1023680003F4FE427B689B6A1B029A421BD17B697D
:1023780003F078427B68DB6ADB069A4213D17B69FB
:1023880003F4C0027B681B6B5B08013B5B059A4248
:1023980009D17B6903F0C0627B685B6B5B08013B1A
:1023A8005B069A4201D0012300E00023184620373B
:1023B800BD4680BD0010024080B586B000AF786091
:1023C800396000237B617B68002B01D101231EE16A
:1023D800914B1B6803F00F033A689A4210D98E4B51
:1023E8001B6823F00F028C493B6813430B608A4B30
:1023F8001B6803F00F033A689A4201D0012306E1F3
:102408007B681B6803F00103002B73D07B685B6853
:10241800032B29D1814B1B6803F00073002B01D1DA
:102428000123F4E000F09EF938613B697C4A93424D
:102438003FD97A4B9B6803F0F003002B09D07B68E7
:102448001B6803F00203002B33D07B689B68002BCA
:102458002FD1724B9B6823F0F003704A43F080033E
:10246800936080237B6124E07B685B68022B07D143
:102478006A4B1B6803F40033002B09D10123C6E023
:10248800664B1B6803F48063002B01D10123BEE077
:1024980000F0CEF838613B69614A934209D95F4B35
:1024A8009B6823F0F0035D4A43F080039360802328
:1024B8007B615A4B9B6823F003027B685B68574932
:1024C80013438B60FEF7C6FBF8600AE0FEF7C2FB19
:1024D8000246FB68D31A41F28832934201D903239A
:1024E80095E04E4B9B6803F00C027B685B689B0091
:1024F8009A42EBD17B681B6803F00203002B23D0C0
:102508007B681B6803F00403002B05D0434B9B68D2
:10251800424A43F4E06393607B681B6803F0080356
:10252800002B07D03D4B9B6823F47C533B4A43F474
:10253800E0639360394B9B6823F0F0027B689B68EB
:10254800364913438B6008E07B69802B05D1334BF8
:102558009B68324A23F0F00393602F4B1B6803F00B
:102568000F033A689A421DD22B4B1B6823F00F02C7
:1025780029493B6813430B60FEF76CFBF8600AE0DF
:10258800FEF768FB0246FB68D31A41F28832934291
:1025980001D903233BE0204B1B6803F00F033A6883
:1025A8009A42EDD17B681B6803F00403002B08D026
:1025B8001A4B9B6823F4E0627B68DB681749134376
:1025C8008B607B681B6803F00803002B09D0134B52
:1025D8009B6823F460527B681B69DB000F49134337
:1025E8008B6000F025F801460C4B9B681B0903F033
:1025F8000F030C4AD35C03F01F0321FA03F30A4AC2
:1026080013600A4B1B681846FEF7D8FA03461846AB
:102618001837BD4680BD00BF0020024000100240B0
:1026280000B4C40440460008000000200400002054
:1026380080B487B000AF2C4B9B6803F00C03042BCD
:1026480002D12A4B3B6147E0274B9B6803F00C0300
:10265800082B02D1264B3B613EE0234B9B6803F0DD
:102668000C030C2B36D1204BDB6803F00303FB6013
:102678001D4BDB681B0903F00F030133BB60FB68CC
:10268800032B0CD11A4ABB68B2FBF3F3164AD26883
:10269800120A02F07F0202FB03F37B610CE0134A8B
:1026A800BB68B2FBF3F3104AD268120A02F07F0249
:1026B80002FB03F37B6100BF0B4BDB685B0E03F08F
:1026C800030301335B007B607A697B68B2FBF3F339
:1026D8003B6101E000233B613B6918461C37BD465E
:1026E8005DF8047B704700BF001002400024F4002E
:1026F80000127A0080B400AF034B1B681846BD4631
:102708005DF8047B704700BF0000002080B500AF73
:10271800FFF7F0FF0146064B9B681B0A03F007030F
:10272800044AD35C03F01F0321FA03F3184680BD63
:10273800001002405046000880B500AFFFF7DAFFEE
:102748000146064B9B68DB0A03F00703044AD35C87
:1027580003F01F0321FA03F3184680BD001002405E
:102768005046000880B487B000AF1E4BDB6803F00A
:1027780003033B611B4BDB681B0903F00F030133A9
:10278800FB603B69032B0CD1174AFB68B2FBF3F3E0
:10279800144AD268120A02F07F0202FB03F37B613B
:1027A8000CE0124AFB68B2FBF3F30E4AD268120A35
:1027B80002F07F0202FB03F37B6100BF094BDB6879
:1027C8005B0E03F0030301335B00BB607A69BB68EF
:1027D800B2FBF3F37B607B6818461C37BD465DF897
:1027E800047B70470010024000127A000024F400B5
:1027F80080B586B000AF78600023FB740023BB74FB
:102808007B681B6803F40023002B00F098800023EA
:102818007B74434B9B6D03F08053002B0DD1404BD1
:102828009B6D3F4A43F0805393653D4B9B6D03F08E
:102838008053BB60BB6801237B743A4B1B68394AE1
:1028480043F480731360FEF705FAF86009E0FEF7B9
:1028580001FA0246FB68D31A022B02D90323FB7440
:1028680005E0304B1B6803F48073002BEFD0FB7C32
:10287800002B59D12A4BD3F8903003F440737B6175
:102888007B69002B1ED07B681B6C7A699A4219D031
:10289800234BD3F8903023F440737B61204BD3F85B
:1028A80090301F4A43F48033C2F890301C4BD3F861
:1028B80090301B4A23F48033C2F89030184A7B6961
:1028C800C2F890307B6903F00103002B16D0FEF7A5
:1028D800C1F9F8600BE0FEF7BDF90246FB68D31AB0
:1028E80041F28832934202D90323FB7406E00C4B71
:1028F800D3F8903003F00203002BECD0FB7C002BC4
:102908000BD1074BD3F8903023F440727B681B6CD3
:1029180003491343C1F8903008E0FB7CBB7405E021
:102928000010024000700040FB7CBB747B7C012BD4
:1029380005D1A64B9B6DA54A23F0805393657B6810
:102948001B6803F00103002B0AD0A04BD3F8883092
:1029580023F003027B685B689C491343C1F8883005
:102968007B681B6803F00203002B0AD0974BD3F84F
:10297800883023F00C027B689B6894491343C1F8A4
:1029880088307B681B6803F00403002B0AD08F4B48
:10299800D3F8883023F030027B68DB688B49134317
:1029A800C1F888307B681B6803F00803002B0AD045
:1029B800864BD3F8883023F0C0027B681B698349B3
:1029C8001343C1F888307B681B6803F02003002B91
:1029D8000AD07E4BD3F8883023F440627B685B6969
:1029E8007A491343C1F888307B681B6803F04003B9
:1029F800002B0AD0754BD3F8883023F440527B68FB
:102A08009B6972491343C1F888307B681B6803F0DF
:102A18008003002B0AD06D4BD3F8883023F4404252
:102A28007B68DB6969491343C1F888307B681B6898
:102A380003F48073002B0AD0644BD3F8883023F456
:102A480040327B681B6A61491343C1F888307B6850
:102A58001B6803F40073002B0AD05C4BD3F8883052
:102A680023F440227B685B6A58491343C1F88830D5
:102A78007B681B6803F48063002B15D0534BD3F895
:102A8800883023F440127B689B6A50491343C1F88D
:102A980088307B689B6AB3F5801F05D14B4BDB6898
:102AA8004A4A43F48013D3607B681B6803F40063CD
:102AB800002B15D0454BD3F8883023F440027B68AF
:102AC800DB6A42491343C1F888307B68DB6AB3F597
:102AD800800F05D13D4BDB683C4A43F48013D3603B
:102AE8007B681B6803F48053002B15D0374BD3F851
:102AF800883023F040727B681B6B34491343C1F85C
:102B080088307B681B6BB3F1807F05D12F4BDB6866
:102B18002E4A43F48013D3607B681B6803F4005388
:102B2800002B15D0294BD3F8883023F040627B68FE
:102B38005B6B26491343C1F888307B685B6BB3F144
:102B4800006F05D1214BDB68204A43F48013D36022
:102B58007B681B6803F48043002B15D01B4BD3F80C
:102B6800883023F040627B689B6B18491343C1F897
:102B780088307B689B6BB3F1006F05D1134BDB6822
:102B8800124A43F48013D3607B681B6803F4004344
:102B9800002B15D00D4BD3F8883023F040527B68BA
:102BA800DB6B0A491343C1F888307B68DB6BB3F1F0
:102BB800805F05D1054BDB68044A43F48033D3605A
:102BC800BB7C18461837BD4680BD00BF00100240C8
:102BD80080B582B000AF78607B68002B01D10123FB
:102BE80042E07B68D3F88030002B06D17B68002256
:102BF80083F87C207868FDF719FF7B682422C3F8E6
:102C080080207B681B681A687B681B6822F00102B9
:102C18001A60786800F0C4F80346012B01D101233B
:102C280022E07B689B6A002B02D0786801F072FA78
:102C38007B681B685A687B681B6822F490425A605C
:102C48007B681B689A687B681B6822F02A029A6076
:102C58007B681B681A687B681B6842F001021A606F
:102C6800786801F0F9FA034618460837BD4680BD72
:102C780080B58AB002AFF860B9603B601346FB804C
:102C8800FB68D3F88030202B40F08380BB68002B92
:102C980002D0FB88002B01D101237BE0FB6893F86D
:102CA8007C30012B01D1022374E0FB68012283F8F8
:102CB8007C20FB680022C3F88820FB682122C3F827
:102CC8008020FDF7C7FF7861FB68FA88A3F85420D5
:102CD800FB68FA88A3F85620FB689B68B3F5805F09
:102CE80008D1FB681B69002B04D10023FB61BB687A
:102CF800BB6103E0BB68FB610023BB612CE03B6860
:102D080000937B6900228021F86801F0EDFA034600
:102D1800002B01D003233DE0FB69002B0BD1BB69DD
:102D28001B881A46FB681B68C2F308029A62BB69D3
:102D38000233BB6107E0FB691A78FB681B689A627B
:102D4800FB690133FB61FB68B3F856309BB2013B6A
:102D58009AB2FB68A3F85620FB68B3F856309BB2CA
:102D6800002BCCD13B6800937B6900224021F86896
:102D780001F0BAFA0346002B01D003230AE0FB68EE
:102D88002022C3F88020FB68002283F87C200023DF
:102D980000E0022318462037BD4680BD0000000031
:102DA8002DE990488AB000AF78600023FB610023CA
:102DB800FB7600237B617B689A687B681B691A43F2
:102DC8007B685B691A437B68DB6913437B627B68BA
:102DD8005B6E7A6A13437B627B681B681A68A44B34
:102DE80013407A681268796A0B4313607B681B6822
:102DF8005B6823F440517B68DA687B681B680A4388
:102E08005A607B689B697B627B681B68994A93421E
:102E180004D07B681B6A7A6A13437B627B681B68F1
:102E28009B6823F06E4323F430637A681268796AEA
:102E38000B4393607B681B68DB6A23F00F017B6898
:102E48005A6A7B681B680A43DA627B681B688A4A8D
:102E5800934226D1894BD3F8883003F00303032B20
:102E68001AD801A252F823F0812E0008912E0008EA
:102E7800892E0008992E0008012387F82330D6E010
:102E8800022387F82330D2E0042387F82330CEE0EA
:102E9800082387F82330CAE0102387F8233000BFBF
:102EA800C5E07B681B68764A934238D1734BD3F8E8
:102EB800883003F00C030C2B2CD801A252F823F015
:102EC800FD2E00081D2F00081D2F00081D2F0008CB
:102ED8000D2F00081D2F00081D2F00081D2F0008AA
:102EE800052F00081D2F00081D2F00081D2F0008A2
:102EF800152F0008002387F8233098E0022387F86D
:102F0800233094E0042387F8233090E0082387F8DF
:102F180023308CE0102387F8233000BF87E07B68DC
:102F28001B68584A934225D1544BD3F8883003F094
:102F38003003102B11D0102B02D8002B05D014E031
:102F4800202B06D0302B0CD00FE0002387F823303D
:102F58006DE0022387F8233069E0042387F82330E3
:102F680065E0082387F8233061E0102387F82330D1
:102F780000BF5CE07B681B68434A934225D13F4B06
:102F8800D3F8883003F0C003402B11D0402B02D86F
:102F9800002B05D014E0802B06D0C02B0CD00FE0FE
:102FA800002387F8233042E0022387F823303EE0ED
:102FB800042387F823303AE0082387F8233036E0E3
:102FC800102387F8233000BF31E07B681B68294A4B
:102FD800934229D1294BD3F8883003F44063B3F5E1
:102FE800806F14D0B3F5806F02D8002B07D016E09D
:102FF800B3F5006F07D0B3F5406F0CD00FE0002396
:1030080087F8233013E0022387F823300FE00423E6
:1030180087F823300BE0082387F8233007E01023D4
:1030280087F8233000BF02E0102387F823307B683D
:103038001B68104A934240F02E8497F82330082BDF
:1030480000F2698101A252F823F000BF9530000810
:103058001F330008373100081F330008CF3100083C
:103068001F3300081F3300081F330008713200089F
:10307800F369FFCF00800040003801400010024093
:103088000044004000480040004C0040FFF73EFB71
:1030980002467B685B6A002B44D07B685B6A012B25
:1030A8003ED07B685B6A022B38D07B685B6A032B57
:1030B80032D07B685B6A042B2CD07B685B6A052B5B
:1030C80026D07B685B6A062B20D07B685B6A072B5F
:1030D8001AD07B685B6A082B14D07B685B6A092B63
:1030E8000ED07B685B6A0A2B08D07B685B6A0B2B67
:1030F80002D14FF4807316E0012314E0802312E01C
:10310800402310E020230EE010230CE00C230AE0FB
:103118000A2308E0082306E0062304E0042302E06B
:10312800022300E00123B2FBF3F37B61F6E07B6846
:103138005B6A002B44D07B685B6A012B3ED07B68BE
:103148005B6A022B38D07B685B6A032B32D07B68C2
:103158005B6A042B2CD07B685B6A052B26D07B68C6
:103168005B6A062B20D07B685B6A072B1AD07B68CA
:103178005B6A082B14D07B685B6A092B0ED07B68CE
:103188005B6A0A2B08D07B685B6A0B2B02D14FF273
:10319800244316E0A14B14E0A14B12E0A14B10E030
:1031A800A14B0EE0A14B0CE0A14B0AE0A14B08E0BB
:1031B800A14B06E0A14B04E0A14B02E0A14B00E0CB
:1031C800964B7B61AAE0FFF733FA02467B685B6A9D
:1031D800002B44D07B685B6A012B3ED07B685B6A1E
:1031E800022B38D07B685B6A032B32D07B685B6A22
:1031F800042B2CD07B685B6A052B26D07B685B6A26
:10320800062B20D07B685B6A072B1AD07B685B6A29
:10321800082B14D07B685B6A092B0ED07B685B6A2D
:103228000A2B08D07B685B6A0B2B02D14FF48073A2
:1032380016E0012314E0802312E0402310E020234D
:103248000EE010230CE00C230AE00A2308E0082310
:1032580006E0062304E0042302E0022300E0012341
:10326800B2FBF3F37B6159E07B685B6A002B4ED0BD
:103278007B685B6A012B47D07B685B6A022B40D076
:103288007B685B6A032B39D07B685B6A042B32D07E
:103298007B685B6A052B2BD07B685B6A062B24D086
:1032A8007B685B6A072B1DD07B685B6A082B16D08E
:1032B8007B685B6A092B0FD07B685B6A0A2B08D096
:1032C8007B685B6A0B2B01D1802322E04FF400431B
:1032D8001FE04FF480731CE04FF4007319E04FF4C3
:1032E800806316E04FF4006313E040F6AA2310E071
:1032F80040F6CC430DE04FF480530AE041F25553B9
:1033080007E04FF4005304E04FF4804301E04FF42A
:1033180000437B6102E00123FB7600BF7B69002B41
:1033280000F0CD867B685A6813465B0013447A69BF
:103338009A4205D37B685B681B037A699A4203D972
:103348000123FB7600F0BBBE97F82330082B00F270
:103358008D8201A252F823F08533000875380008E1
:10336800EF34000875380008E5350008753800089E
:10337800753800087538000823370008FFF7C6F9C4
:1033880038613B6918464FF000017B685B6A002B87
:103398007DD07B685B6A012B74D07B685B6A022BEB
:1033A8006BD07B685B6A032B62D07B685B6A042BFB
:1033B80059D07B685B6A052B50D07B685B6A062B0B
:1033C80047D07B685B6A072B3ED07B685B6A082B1B
:1033D8001FD07B685B6A092B16D07B685B6A0A2B57
:1033E8000DD07B685B6A0B2B04D14FF480734FF0D0
:1033F800000450E04FF001034FF000044BE04FF0A1
:1034080080034FF0000446E04FF040034FF0000403
:1034180041E04FF020034FF000043CE00024F400AA
:1034280048E8010090D0030020A1070040420F00A7
:1034380055581400006A180080841E00AAB028009D
:1034480000093D0000127A004FF010034FF000040D
:1034580021E04FF00C034FF000041CE04FF00A038A
:103468004FF0000417E04FF008034FF0000412E09B
:103478004FF006034FF000040DE04FF004034FF047
:10348800000408E04FF002034FF0000403E04FF09F
:1034980001034FF000041A462346FCF7B9FE034621
:1034A8000C46194622464FF000034FF00004140260
:1034B80044EA11640B027A685268520811464FF0C8
:1034C800000213EB010B44EB020C584661467B6883
:1034D8005B684FF000041A462346FCF799FE034642
:1034E8000C46FB61C5E17B685B6A002B5BD07B689F
:1034F8005B6A012B53D07B685B6A022B4BD07B68DD
:103508005B6A032B43D07B685B6A042B3BD07B68E8
:103518005B6A052B33D07B685B6A062B2BD07B68F4
:103528005B6A072B23D07B685B6A082B1BD07B6800
:103538005B6A092B13D07B685B6A0A2B0BD07B680C
:103548005B6A0B2B03D1AE4B4FF000042EE0AD4B62
:103558004FF000042AE0AC4B4FF0000426E0AB4BE0
:103568004FF0000422E0AA4B4FF000041EE0A94BE4
:103578004FF000041AE09EA4D4E9003416E0A64BEC
:103588004FF0000412E0A54B4FF000040EE09AA49F
:10359800D4E900340AE0A24B4FF0000406E0A14B46
:1035A8004FF0000402E0974B4FF000047A6852682D
:1035B800520811464FF0000213EB010B44EB020CCA
:1035C800584661467B685B684FF000041A462346FC
:1035D800FCF71EFE03460C46FB614AE1FFF728F89C
:1035E80038613B6918464FF000017B685B6A002B25
:1035F80067D07B685B6A012B5ED07B685B6A022BB5
:1036080055D07B685B6A032B4CD07B685B6A042BC4
:1036180043D07B685B6A052B3AD07B685B6A062BD4
:1036280031D07B685B6A072B28D07B685B6A082BE4
:103638001FD07B685B6A092B16D07B685B6A0A2BF4
:103648000DD07B685B6A0B2B04D14FF480734FF06D
:1036580000043AE04FF001034FF0000435E04FF06A
:1036680080034FF0000430E04FF040034FF00004B7
:103678002BE04FF020034FF0000426E04FF010033A
:103688004FF0000421E04FF00C034FF000041CE061
:103698004FF00A034FF0000417E04FF008034FF013
:1036A800000412E04FF006034FF000040DE04FF065
:1036B80004034FF0000408E04FF002034FF0000449
:1036C80003E04FF001034FF000041A462346FCF7CD
:1036D8009FFD03460C46194622464FF000034FF063
:1036E8000004140244EA11640B027A685268520812
:1036F80011464FF0000213EB010B44EB020C584645
:1037080061467B685B684FF000041A462346FCF765
:103718007FFD03460C46FB61ABE07B685B6A002BD0
:1037280000F088807B685B6A012B5BD07B685B6AF2
:10373800022B52D07B685B6A032B4AD07B685B6A9A
:10374800042B41D07B685B6A052B39D07B685B6AA8
:10375800062B31D07B685B6A072B28D07B685B6AB5
:10376800082B1FD07B685B6A092B16D07B685B6AC5
:103778000A2B0DD07B685B6A0B2B04D14FF40043F6
:103788004FF000045AE04FF400034FF0000455E0F6
:103798004FF480334FF0000450E04FF400334FF003
:1037A80000044BE04FF480234FF0000446E04FF450
:1037B80000234FF0000441E01B4B4FF000043DE0B4
:1037C8001A4B4FF0000439E04FF480134FF0000417
:1037D80034E0174B4FF0000430E04FF400134FF083
:1037E80000042BE04FF480034FF0000426E000BFF4
:1037F800005558140000000000AAB028000000007E
:103808000024F400000024F40048E8010090D003EC
:103818000020A1070040420F00006A180080841EA3
:103828000000093D0000127A00AA0A0000CC0C0032
:10383800005515004FF400034FF000047A685268F1
:10384800520811464FF0000213EB010B44EB020C37
:10385800584661467B685B684FF000041A46234669
:10386800FCF7D6FC03460C46FB6102E00123FB761D
:1038780000BFFB69B3F5407F09D3FB69B3F5801F2F
:1038880005D27B681B68FA69DA6000F018BC01236E
:10389800FB7600F014BC7B68DB69B3F5004F40F0A1
:1038A800048297F82330082B00F2DF8101A252F836
:1038B80023F000BFE138000899390008513A0008A0
:1038C800733C0008F93A0008733C0008733C000890
:1038D800733C0008B13B0008FEF718FF38617B68AD
:1038E8005B6A002B44D07B685B6A012B3ED07B6807
:1038F8005B6A022B38D07B685B6A032B32D07B680B
:103908005B6A042B2CD07B685B6A052B26D07B680E
:103918005B6A062B20D07B685B6A072B1AD07B6812
:103928005B6A082B14D07B685B6A092B0ED07B6816
:103938005B6A0A2B08D07B685B6A0B2B02D14FF4B9
:10394800807316E0012314E0802312E0402310E086
:1039580020230EE010230CE00C230AE00A2308E0E1
:10396800082306E0062304E0042302E0022300E023
:1039780001233A69B2FBF3F35A007B685B685B0882
:103988001A447B685B68B2FBF3F39BB2FB616FE19F
:10399800FEF7D2FE38617B685B6A002B44D07B68F7
:1039A8005B6A012B3ED07B685B6A022B38D07B6850
:1039B8005B6A032B32D07B685B6A042B2CD07B6854
:1039C8005B6A052B26D07B685B6A062B20D07B6858
:1039D8005B6A072B1AD07B685B6A082B14D07B685C
:1039E8005B6A092B0ED07B685B6A0A2B08D07B6860
:1039F8005B6A0B2B02D14FF4807316E0012314E0AD
:103A0800802312E0402310E020230EE010230CE076
:103A18000C230AE00A2308E0082306E0062304E052
:103A2800042302E0022300E001233A69B2FBF3F326
:103A38005A007B685B685B081A447B685B68B2FB6A
:103A4800F3F39BB2FB6113E17B685B6A002B43D005
:103A58007B685B6A012B3DD07B685B6A022B37D0A1
:103A68007B685B6A032B31D07B685B6A042B2BD0A5
:103A78007B685B6A052B25D07B685B6A062B1FD0A9
:103A88007B685B6A072B19D07B685B6A082B13D0AD
:103A98007B685B6A092B0DD07B685B6A0A2B07D0B1
:103AA8007B685B6A0B2B01D18D4B16E08D4B14E0C4
:103AB8008D4B12E08D4B10E08D4B0EE08D4B0CE0E2
:103AC8008D4B0AE08D4B08E08D4B06E08D4B04E0F2
:103AD8008D4B02E08D4B00E0824B7A6852685208A9
:103AE8001A447B685B68B2FBF3F39BB2FB61BFE0EF
:103AF800FEF79EFD38617B685B6A002B44D07B68CB
:103B08005B6A012B3ED07B685B6A022B38D07B68EE
:103B18005B6A032B32D07B685B6A042B2CD07B68F2
:103B28005B6A052B26D07B685B6A062B20D07B68F6
:103B38005B6A072B1AD07B685B6A082B14D07B68FA
:103B48005B6A092B0ED07B685B6A0A2B08D07B68FE
:103B58005B6A0B2B02D14FF4807316E0012314E04B
:103B6800802312E0402310E020230EE010230CE015
:103B78000C230AE00A2308E0082306E0062304E0F1
:103B8800042302E0022300E001233A69B2FBF3F3C5
:103B98005A007B685B685B081A447B685B68B2FB09
:103BA800F3F39BB2FB6163E07B685B6A002B4FD049
:103BB8007B685B6A012B48D07B685B6A022B41D02B
:103BC8007B685B6A032B3AD07B685B6A042B33D033
:103BD8007B685B6A052B2CD07B685B6A062B25D03B
:103BE8007B685B6A072B1ED07B685B6A082B17D043
:103BF8007B685B6A092B10D07B685B6A0A2B09D04B
:103C08007B685B6A0B2B02D14FF4807322E04FF480
:103C180080331FE04FF400731CE04FF4806319E019
:103C28004FF4006316E04FF4805313E041F254530D
:103C380010E041F698130DE04FF400530AE042F605
:103C4800AA2307E04FF4804304E04FF4004301E067
:103C58004FF480337A68526852081A447B685B686C
:103C6800B2FBF3F39BB2FB6102E00123FB7600BFDA
:103C7800FB690F2B16D9FB69B3F5803F12D2FB699C
:103C88009BB223F00F03FB81FB695B089BB203F037
:103C980007039AB2FB891343FB817B681B68FA8987
:103CA800DA600CE20123FB7609E297F82330082B4F
:103CB80000F2F48101A252F823F000BF193D000878
:103CC800CF3D0008853E0008A54000082F3F0008AA
:103CD800A5400008A5400008A5400008E53F0008E9
:103CE80048E801000048E80190D0030020A107003F
:103CF80040420F0080841E00AAB0280000D4300083
:103D080000093D005461510000127A000024F400BB
:103D1800FEF7FCFC38617B685B6A002B44D07B684B
:103D28005B6A012B3ED07B685B6A022B38D07B68CC
:103D38005B6A032B32D07B685B6A042B2CD07B68D0
:103D48005B6A052B26D07B685B6A062B20D07B68D4
:103D58005B6A072B1AD07B685B6A082B14D07B68D8
:103D68005B6A092B0ED07B685B6A0A2B08D07B68DC
:103D78005B6A0B2B02D14FF4807316E0012314E029
:103D8800802312E0402310E020230EE010230CE0F3
:103D98000C230AE00A2308E0082306E0062304E0CF
:103DA800042302E0022300E001233A69B2FBF3F2A4
:103DB8007B685B685B081A447B685B68B2FBF3F35B
:103DC8009BB2FB616DE1FEF7B7FC38617B685B6A0B
:103DD800002B44D07B685B6A012B3ED07B685B6A12
:103DE800022B38D07B685B6A032B32D07B685B6A16
:103DF800042B2CD07B685B6A052B26D07B685B6A1A
:103E0800062B20D07B685B6A072B1AD07B685B6A1D
:103E1800082B14D07B685B6A092B0ED07B685B6A21
:103E28000A2B08D07B685B6A0B2B02D14FF4807396
:103E380016E0012314E0802312E0402310E0202341
:103E48000EE010230CE00C230AE00A2308E0082304
:103E580006E0062304E0042302E0022300E0012335
:103E68003A69B2FBF3F27B685B685B081A447B68CB
:103E78005B68B2FBF3F39BB2FB6112E17B685B6AA0
:103E8800002B44D07B685B6A012B3ED07B685B6A61
:103E9800022B38D07B685B6A032B32D07B685B6A65
:103EA800042B2CD07B685B6A052B26D07B685B6A69
:103EB800062B20D07B685B6A072B1AD07B685B6A6D
:103EC800082B14D07B685B6A092B0ED07B685B6A71
:103ED8000A2B08D07B685B6A0B2B02D14FF2244374
:103EE80016E0814B14E0814B12E0814B10E0814BCE
:103EF8000EE0814B0CE0814B0AE0814B08E0814BDE
:103F080006E0814B04E0814B02E0814B00E0764BF8
:103F18007A68526852081A447B685B68B2FBF3F30C
:103F28009BB2FB61BDE0FEF783FB38617B685B6A8F
:103F3800002B44D07B685B6A012B3ED07B685B6AB0
:103F4800022B38D07B685B6A032B32D07B685B6AB4
:103F5800042B2CD07B685B6A052B26D07B685B6AB8
:103F6800062B20D07B685B6A072B1AD07B685B6ABC
:103F7800082B14D07B685B6A092B0ED07B685B6AC0
:103F88000A2B08D07B685B6A0B2B02D14FF4807335
:103F980016E0012314E0802312E0402310E02023E0
:103FA8000EE010230CE00C230AE00A2308E00823A3
:103FB80006E0062304E0042302E0022300E00123D4
:103FC8003A69B2FBF3F27B685B685B081A447B686A
:103FD8005B68B2FBF3F39BB2FB6162E07B685B6AF0
:103FE800002B4ED07B685B6A012B47D07B685B6AED
:103FF800022B40D07B685B6A032B39D07B685B6AF5
:10400800042B32D07B685B6A052B2BD07B685B6AFC
:10401800062B24D07B685B6A072B1DD07B685B6A04
:10402800082B16D07B685B6A092B0FD07B685B6A0C
:104038000A2B08D07B685B6A0B2B01D1802322E016
:104048004FF400431FE04FF480731CE04FF40073FB
:1040580019E04FF4806316E04FF4006313E040F674
:10406800AA2310E040F6CC430DE04FF480530AE059
:1040780041F2555307E04FF4005304E04FF48043F6
:1040880001E04FF400437A68526852081A447B688A
:104098005B68B2FBF3F39BB2FB6102E00123FB76A2
:1040A80000BFFB690F2B08D9FB69B3F5803F04D229
:1040B8007B681B68FA69DA6001E00123FB767B689C
:1040C8000122A3F86A207B680122A3F868207B6894
:1040D8000022DA667B6800221A67FB7E18462837BA
:1040E800BD46BDE8908800BF0024F40048E8010000
:1040F80090D0030020A1070040420F00555814003B
:10410800006A180080841E00AAB0280000093D003B
:1041180000127A0080B483B000AF78607B689B6A35
:1041280003F00103002B0AD07B681B685B6823F44B
:1041380000317B68DA6A7B681B680A435A607B68CF
:104148009B6A03F00203002B0AD07B681B685B683C
:1041580023F480317B681A6B7B681B680A435A60BA
:104168007B689B6A03F00403002B0AD07B681B68FA
:104178005B6823F480217B685A6B7B681B680A4361
:104188005A607B689B6A03F00803002B0AD07B689F
:104198001B685B6823F400417B689A6B7B681B682B
:1041A8000A435A607B689B6A03F01003002B0AD00D
:1041B8007B681B689B6823F480517B68DA6B7B689B
:1041C8001B680A439A607B689B6A03F02003002BF4
:1041D8000AD07B681B689B6823F400517B681A6CC3
:1041E8007B681B680A439A607B689B6A03F04003FC
:1041F800002B1AD07B681B685B6823F480117B68EE
:104208005A6C7B681B680A435A607B685B6CB3F521
:10421800801F0AD17B681B685B6823F4C0017B6838
:104228009A6C7B681B680A435A607B689B6A03F038
:104238008003002B0AD07B681B685B6823F400218D
:104248007B68DA6C7B681B680A435A6000BF0C37CE
:10425800BD465DF8047B704780B586B002AF7860D4
:104268007B680022C3F88820FCF7F4FCF8607B68C0
:104278001B681B6803F00803082B0ED16FF07E4300
:104288000093FB6800224FF40011786800F02CF8C6
:104298000346002B01D0032322E07B681B681B68C0
:1042A80003F00403042B0ED16FF07E430093FB68E8
:1042B80000224FF48001786800F016F80346002BBE
:1042C80001D003230CE07B682022C3F880207B68A0
:1042D8002022C3F884207B68002283F87C200023F6
:1042E80018461037BD4680BD80B584B000AFF86071
:1042F800B9603B601346FB712CE0BB69B3F1FF3F2B
:1043080028D0FCF7A7FC02463B68D31ABA699A4240
:1043180002D3BB69002B1DD1FB681B681A68FB68B8
:104328001B6822F4D0721A60FB681B689A68FB68E5
:104338001B6822F001029A60FB682022C3F88020E3
:10434800FB682022C3F88420FB68002283F87C20C5
:1043580003230FE0FB681B68DA69BB681340BA687F
:104368009A420CBF01230023DBB21A46FB799A421A
:10437800C3D0002318461037BD4680BD80B485B031
:1043880000AF78607B6893F87C30012B01D1022361
:1043980027E07B68012283F87C207B682422C3F80D
:1043A80080207B681B681B68FB607B681B681A6839
:1043B8007B681B6822F001021A60FB6823F0005337
:1043C800FB607B6800225A667B681B68FA681A6083
:1043D8007B682022C3F880207B68002283F87C2039
:1043E800002318461437BD465DF8047B704780B536
:1043F80084B000AF786039607B6893F87C30012B1B
:1044080001D102232DE07B68012283F87C207B68A0
:104418002422C3F880207B681B681B68FB607B68CC
:104428001B681A687B681B6822F001021A607B68A7
:104438001B689B6823F060417B681B683A680A43E5
:104448009A60786800F050F87B681B68FA681A6010
:104458007B682022C3F880207B68002283F87C20B8
:10446800002318461037BD4680BD80B584B000AF24
:10447800786039607B6893F87C30012B01D1022386
:104488002DE07B68012283F87C207B682422C3F816
:1044980080207B681B681B68FB607B681B681A6848
:1044A8007B681B6822F001021A607B681B689B68A6
:1044B80023F060617B681B683A680A439A607868F1
:1044C80000F012F87B681B68FA681A607B68202283
:1044D800C3F880207B68002283F87C2000231846DC
:1044E8001037BD4680BD000080B489B000AF786049
:1044F8002F4A07F1140392E8030083E803002D4ACA
:1045080007F10C0392E8030083E803007B685B6E05
:10451800002B08D17B680122A3F86A207B6801225E
:10452800A3F868203DE00823FB770823BB777B6866
:104538001B689B685B0EDBB203F007037B777B6825
:104548001B689B685B0FDBB203F007033B77BB7FFD
:104558003A7F07F120010A4412F80C2C02FB03F3FE
:104568003A7F07F120010A4412F8142C93FBF2F366
:104578009AB27B68A3F86A20FB7F7A7F07F1200153
:104588000A4412F80C2C02FB03F37A7F07F120018E
:104598000A4412F8142C93FBF2F39AB27B68A3F83E
:1045A800682000BF2437BD465DF8047B704700BF14
:1045B800304600083846000870B50D4E0D4CA41B57
:1045C800A4100025A54209D10B4E0C4C00F020F890
:1045D800A41BA4100025A54205D170BD56F82530AE
:1045E80098470135EEE756F8253098470135F2E748
:1045F80060460008604600086046000864460008F7
:1046080002440346934200D1704703F8011BF9E7BF
:10461800F8B500BFF8BC08BC9E467047F8B500BFA7
:08462800F8BC08BC9E46704777
:10463000010101030701000008040204080101014F
:104640000000000000000000010203040607080942
:08465000000000000102030458
:08465800F0BBFF7F0100000030
:04466000FD01000850
:04466400D901000870
:0C4668000024F40010000000010000001D
:0400000508000B41A3
:00000001FF
