:020000040800F2
:1000000000500020BD050008010500080D0500088E
:1000100013050008190500081F050008000000006E
:10002000000000000000000000000000250500089E
:1000300031050008000000003D05000849050008E2
:100040000506000805060008050600080506000864
:100050000506000805060008050600080506000854
:100060000506000805060008050600080506000844
:100070000506000805060008050600080506000834
:100080000506000805060008050600080506000824
:100090000506000805060008050600080506000814
:1000A0000506000805060008050600080506000804
:1000B00005060008050600080506000805060008F4
:1000C00005060008050600080506000805060008E4
:1000D00005060008050600080506000805060008D4
:1000E00005060008050600080506000800000000D7
:1000F0000000000000000000000000000000000000
:0C01000000000000000000005FF808F1A3
:10010C0010B5054C237833B9044B13B10448AFF345
:10011C0000800123237010BD0C00002000000000A3
:10012C008823000808B5034B1BB103490348AFF300
:10013C00008008BD0000000010000020882300088B
:10014C0080B58EB002AF00F059FA00F083F800F0E1
:10015C00F5F800F0C5F802213B4800F011FD03460C
:10016C0087F82F3097F82F30002B25D000224FF432
:10017C000051364800F01BFD642000F0A1FA01226A
:10018C004FF40051314800F012FD642000F098FA51
:10019C0000224FF400512D4800F009FD642000F0BE
:1001AC008FFA01224FF40051284800F000FD4FF463
:1001BC00FA7000F085FA07E04FF40051234800F084
:1001CC000EFD642000F07CFA0023BB85BB8D1B0A5E
:1001DC009BB2DBB287F82030BB8DDBB287F82130C5
:1001EC001B4801F076F9034687F82B30184801F0CC
:1001FC0063F9034687F82A30A02399B207F120024D
:10020C004FF0FF3300930223114800F029FE034600
:10021C0087F829300E4801F069F97862002399B209
:10022C003A464FF47A7300932023094800F016FFE6
:10023C00034687F82930064801F058F97862012006
:10024C0000F03EFA87E700BF000C014000100140AF
:10025C002800002080B590B000AF07F118032822C9
:10026C000021184602F082F83B1D00221A605A60E9
:10027C009A60DA601A610123BB614FF48033FB6131
:10028C0000233B620123BB6202237B634FF4803368
:10029C00BB634FF4E013FB6307F11803184601F03E
:1002AC0039FC0346002B01D000F0AEF80F237B6025
:1002BC000223BB600023FB604FF480633B6100238F
:1002CC007B613B1D0221184601F0A4FE0346002B66
:1002DC0001D000F099F800BF4037BD4680BD00004A
:1002EC0080B500AF124B134A1A60114B124A5A6078
:1002FC000F4B00229A600E4B0022DA600C4B4FF42D
:10030C0080421A610A4B00225A61094B00229A6101
:10031C00074B0022DA61064B00221A62044800F0F7
:10032C0077FC0346002B01D000F06EF800BF80BDB7
:10033C002800002000540040A086010080B588B041
:10034C0000AF07F1100300221A605A609A60DA605D
:10035C002A4B9B69294A43F010039361274B9B69F5
:10036C0003F01003FB60FB68244B9B69234A43F0AA
:10037C0020039361214B9B6903F02003BB60BB6896
:10038C001E4B9B691D4A43F0080393611B4B9B69F1
:10039C0003F008037B607B68184B9B69174A43F09A
:1003AC0004039361154B9B6903F004033B603B68AA
:1003BC0000224FF40051124800F0F9FB4FF40053A7
:1003CC003B6101237B610023BB610223FB6107F1CD
:1003DC00100319460A4800F079FA02233B61002306
:1003EC007B610123BB6107F110031946054800F03E
:1003FC006DFA00BF2037BD4680BD00BF0010024023
:10040C0000100140000C014080B400AF00BFBD469D
:10041C0080BC704780B485B000AF154B9B69144A03
:10042C0043F001039361124B9B6903F00103BB6022
:10043C00BB680F4BDB690E4A43F08053D3610C4B06
:10044C00DB6903F080537B607B680A4B5B68FB6065
:10045C00FB6823F0E063FB60FB6843F00073FB6018
:10046C00044AFB68536000BF1437BD4680BC70471C
:10047C00001002400000014080B588B000AF7860E9
:10048C0007F1100300221A605A609A60DA607B68E8
:10049C001B68154A934223D1144B9B69134A43F0B2
:1004AC0008039361114B9B6903F00803FB60FB6825
:1004BC00C0233B6112237B610323FB6107F1100313
:1004CC0019460B4800F002FA084BDB69074A43F463
:1004DC000013D361054BDB6903F40013BB60BB68ED
:1004EC0000BF2037BD4680BD0054004000100240C4
:1004FC00000C014080B400AF00BFBD4680BC70470B
:10050C0080B400AFFEE780B400AFFEE780B400AF6C
:10051C00FEE780B400AFFEE780B400AF00BFBD467D
:10052C0080BC704780B400AF00BFBD4680BC704734
:10053C0080B400AF00BFBD4680BC704780B500AF33
:10054C0000F0A2F800BF80BD80B400AF154B1B6853
:10055C00144A43F001031360124B5A681149124BB1
:10056C0013404B600F4B1B680E4A23F0847323F42B
:10057C00803313600B4B1B680A4A23F480231360EF
:10058C00084B5B68074A23F4FE035360054B4FF49A
:10059C001F029A60054B4FF000629A6000BFBD4687
:1005AC0080BC7047001002400000FFF800ED00E036
:1005BC00002103E00B4B5B58435004310A480B4BB2
:1005CC0042189A42F6D30A4A02E0002342F8043B4E
:1005DC00084B9A42F9D3FFF7B7FF01F0A3FEFFF7E0
:1005EC00AFFD7047D4230008000000200C00002051
:1005FC000C00002080000020FEE7000080B500AF5A
:10060C00084B1B68074A43F010031360032000F0EB
:10061C0029F9002000F008F8FFF7FCFE002318462B
:10062C0080BD00BF0020024080B582B000AF786072
:10063C00124B1A68124B1B7819464FF47A73B3FBA2
:10064C00F1F3B2FBF3F3184600F033F90346002B39
:10065C0001D001230EE07B680F2B0AD800227968A9
:10066C004FF0FF3000F009F9064A7B681360002355
:10067C0000E0012318460837BD4680BD000000206D
:10068C00080000200400002080B400AF054B1B784C
:10069C001A46054B1B681344034A136000BFBD4642
:1006AC0080BC7047080000207C00002080B400AFA4
:1006BC00024B1B681846BD4680BC70477C0000206E
:1006CC0080B584B000AF7860FFF7F0FFB8607B684E
:1006DC00FB60FB68B3F1FF3F05D0094B1B781A4652
:1006EC00FB681344FB6000BFFFF7E0FF0246BB68EA
:1006FC00D31AFA689A42F7D800BF1037BD4680BDAE
:10070C000800002080B485B000AF78607B6803F0EF
:10071C000703FB600C4BDB68BB60BA684FF6FF034A
:10072C001340BB60FB681A02BB68134343F0BF6302
:10073C0043F40033BB60044ABB68D36000BF14377A
:10074C00BD4680BC704700BF00ED00E080B400AF38
:10075C00044BDB681B0A03F007031846BD4680BC3C
:10076C00704700BF00ED00E080B483B000AF0346DB
:10077C003960FB7197F90730002B0ADB3B68DAB262
:10078C000C4997F907301201D2B20B4483F80023BD
:10079C000AE03B68DAB20849FB7903F00F03043B2B
:1007AC001201D2B20B441A7600BF0C37BD4680BC86
:1007BC00704700BF00E100E000ED00E080B489B0BC
:1007CC0000AFF860B9607A60FB6803F00703FB6167
:1007DC00FB69C3F10703042B28BF0423BB61FB692E
:1007EC000433062B02D9FB69033B00E000237B6139
:1007FC004FF0FF32BB6902FA03F3DA43BB681A40CD
:10080C007B699A404FF0FF317B6901FA03F3D943BE
:10081C007B680B40134318462437BD4680BC704799
:10082C0080B582B000AF78607B68013BB3F1807F0C
:10083C0001D301230FE00A4A7B68013B53600F216F
:10084C004FF0FF30FFF790FF054B00229A60044BEE
:10085C0007221A60002318460837BD4680BD00BF2A
:10086C0010E000E080B582B000AF78607868FFF7E8
:10087C0049FF00BF0837BD4680BD80B586B000AFCC
:10088C000346B9607A60FB7300237B61FFF75EFF60
:10089C0078617A68B9687869FFF790FF024697F932
:1008AC000F3011461846FFF75FFF00BF1837BD46E3
:1008BC0080BD80B582B000AF78607868FFF7B0FF7C
:1008CC00034618460837BD4680BD000080B48BB087
:1008DC0000AF7860396000237B6200233B6227E124
:1008EC0001227B6A02FA03F3FB613B681B68FA691D
:1008FC001340BB61BA69FB699A4240F016813B68B0
:10090C005B68122B34D0122B0DD8022B2BD0022B60
:10091C0004D8002B31D0012B1CD048E0032B43D042
:10092C00112B1BD043E0894A934226D0874A93422D
:10093C0006D8874A934220D0864A93421DD036E08F
:10094C00854A934219D0854A934216D0844A9342E1
:10095C0013D02CE03B68DB683B6228E03B68DB682B
:10096C0004333B6223E03B68DB6808333B621EE0E8
:10097C003B68DB680C333B6219E03B689B68002BDF
:10098C0002D104233B6212E03B689B68012B05D12A
:10099C0008233B627B68FA691A6108E008233B6212
:1009AC007B68FA695A6102E000233B6200BFBB69B5
:1009BC00FF2B01D87B6801E07B6804337B61BB694A
:1009CC00FF2B02D87B6A9B0002E07B6A083B9B00F2
:1009DC003B617B691A680F213B6901FA03F3DB4326
:1009EC001A40396A3B6901FA03F31A437B691A60AE
:1009FC003B685B6803F08053002B00F09680594BEA
:100A0C009B69584A43F001039361564B9B6903F071
:100A1C000103BB60BB68544A7B6A9B08023352F8E3
:100A2C002330FB607B6A03F003039B000F2202FA66
:100A3C0003F3DB43FA681340FB607B684B4A934239
:100A4C0013D07B684A4A93420DD07B68494A934243
:100A5C0007D07B68484A934201D1032306E0042364
:100A6C0004E0022302E0012300E000237A6A02F092
:100A7C00030292009340FA681343FB603A497B6A85
:100A8C009B080233FA6841F823203B685B6803F447
:100A9C008033002B06D0394B1A683849BB69134395
:100AAC000B6006E0354B1A68BB69DB4333491340D6
:100ABC000B603B685B6803F40033002B06D02F4BB4
:100ACC005A682E49BB6913434B6006E02B4B5A689E
:100ADC00BB69DB43294913404B603B685B6803F4FB
:100AEC008013002B06D0254B9A682449BB6913430D
:100AFC008B6006E0214B9A68BB69DB431F491340AE
:100B0C008B603B685B6803F40013002B06D01B4B17
:100B1C00DA681A49BB691343CB6006E0174BDA68F5
:100B2C00BB69DB4315491340CB607B6A01337B62A5
:100B3C003B681A687B6A22FA03F3002B7FF4D0AE71
:100B4C0000BF2C37BD4680BC704700BF0000211091
:100B5C0000001110000012100000311000003210C3
:100B6C00000022100010024000000140000801406B
:100B7C00000C014000100140001401400004014031
:100B8C0080B485B000AF78600B467B807B689A6838
:100B9C007B881340002B02D00123FB7301E0002360
:100BAC00FB73FB7B18461437BD4680BC704780B482
:100BBC0083B000AF78600B467B8013467B707B78EC
:100BCC00002B03D07A887B681A6103E07B881A04B7
:100BDC007B681A6100BF0C37BD4680BC704780B47F
:100BEC0083B000AF78600B467B807B68DA687B88CB
:100BFC001340002B03D07A887B685A6102E07A8814
:100C0C007B681A6100BF0C37BD4680BC7047000082
:100C1C0080B584B000AF78607B68002B01D10123D4
:100C2C000FE17B6893F83D30DBB2002B06D17B687B
:100C3C00002283F83C207868FFF71EFC7B68242296
:100C4C0083F83D207B681B681A687B681B6822F060
:100C5C0001021A6001F034FBF8607B685B687B4A28
:100C6C00934207D8FB687A4A934294BF012300232E
:100C7C00DBB206E0FB68774A934294BF0123002362
:100C8C00DBB2002B01D00123DBE0FB68724AA2FB34
:100C9C0003239B0CBB607B681B685B6823F03F01E4
:100CAC007B681B68BA680A435A607B681B681B6ABE
:100CBC0023F03F017B685B68644A934202D8BB68AF
:100CCC00013309E0BB684FF4967202FB03F3634AED
:100CDC00A2FB03239B0901337A6812680B4313624E
:100CEC007B681B68DB6923F44F4222F0FF027B68B0
:100CFC005B6856498B420DD8FB68591E7B685B6854
:100D0C005B00B1FBF3F30133C3F30B03042B38BFCC
:100D1C0004234FE07B689B68002B11D1FB68581EA5
:100D2C007B6859680B465B000B44B0FBF3F3013353
:100D3C00C3F30B03002B0CBF01230023DBB212E027
:100D4C00FB68581E7B6859680B469B000B44990046
:100D5C000B44B0FBF3F30133C3F30B03002B0CBFB9
:100D6C0001230023DBB2002B01D0012322E07B689E
:100D7C009B68002B0ED1FB68581E7B6859680B468C
:100D8C005B000B44B0FBF3F30133C3F30B0343F4ED
:100D9C0000430FE0FB68581E7B6859680B469B00AC
:100DAC000B4499000B44B0FBF3F30133C3F30B0377
:100DBC0043F44043796809681343CB617B681B6833
:100DCC001B6823F0C0017B68DA697B681B6A1A43D5
:100DDC007B681B680A431A607B681B689B6823F45A
:100DEC00034323F0FF037A6811697A68D2681143D0
:100DFC007A6812680B4393607B681B68DB6823F08E
:100E0C00FF017B685A697B689B691A437B681B6886
:100E1C000A43DA607B681B681A687B681B6842F0BF
:100E2C0001021A607B6800221A647B68202283F816
:100E3C003D207B6800221A637B68002283F83E20E9
:100E4C00002318461037BD4680BD00BFA0860100A8
:100E5C007F841E00FF083D0083DE1B43D34D6210D0
:100E6C0080B588B002AFF8607A601A460B467B8179
:100E7C0013463B81FFF71AFC7861FB6893F83D3011
:100E8C00DBB2202B40F0E0807B6900931923012218
:100E9C007049F86800F062FC0346002B01D0022375
:100EAC00D3E0FB6893F83C30012B01D10223CCE05A
:100EBC00FB68012283F83C20FB681B681B6803F06D
:100ECC000103012B07D0FB681B681A68FB681B68C1
:100EDC0042F001021A60FB681B681A68FB681B6809
:100EEC0022F400621A60FB68212283F83D20FB6823
:100EFC00102283F83E20FB6800221A64FB687A6893
:100F0C005A62FB683A895A85FB685B8D9AB2FB681A
:100F1C001A85FB68504ADA6279897B693A6AF86803
:100F2C0000F0F0FA0346002B01D001238DE00023E2
:100F3C003B61FB681B685B693B61FB681B689B69D9
:100F4C003B613B6966E07A69396AF86800F0DCFC61
:100F5C000346002B0DD0FB681B6C042B07D1FB68E0
:100F6C001B681A68FB681B6842F400721A60012344
:100F7C006BE0FB685B6A1A78FB681B681A61FB689C
:100F8C005B6A5A1CFB685A62FB685B8D9BB2013B27
:100F9C009AB2FB685A85FB681B8D013B9AB2FB68C1
:100FAC001A85FB681B685B6903F00403042B1BD1D7
:100FBC00FB681B8D002B17D0FB685B6A1A78FB68EB
:100FCC001B681A61FB685B6A5A1CFB685A62FB68F7
:100FDC005B8D9BB2013B9AB2FB685A85FB681B8DFB
:100FEC00013B9AB2FB681A857A69396AF86800F095
:100FFC00CCFC0346002B0DD0FB681B6C042B07D1DB
:10100C00FB681B681A68FB681B6842F400721A6064
:10101C0001231AE0FB681B8D002B94D1FB681B6825
:10102C001A68FB681B6842F400721A60FB68202285
:10103C0083F83D20FB68002283F83E20FB680022E9
:10104C0083F83C20002300E0022318461837BD46E5
:10105C0080BD00BF020010000000FFFF80B58CB007
:10106C0002AFF8607A601A460B467B8113463B81CF
:10107C00FFF71CFB7862FB6893F83D30DBB2202B4A
:10108C0040F013827B6A0093192301227E49F86891
:10109C0000F064FB0346002B01D0022306E2FB6840
:1010AC0093F83C30012B01D10223FFE1FB680122B4
:1010BC0083F83C20FB681B681B6803F00103012BC1
:1010CC0007D0FB681B681A68FB681B6842F00102BA
:1010DC001A60FB681B681A68FB681B6822F40062C4
:1010EC001A60FB68222283F83D20FB68102283F8EB
:1010FC003E20FB6800221A64FB687A685A62FB681F
:10110C003A895A85FB685B8D9AB2FB681A85FB6835
:10111C005E4ADA6279897B6A3A6BF86800F068FAA1
:10112C000346002B01D00123C0E1FB681B8D002B73
:10113C0013D100233B62FB681B685B693B62FB6855
:10114C001B689B693B623B6AFB681B681A68FB68FF
:10115C001B6842F400721A6094E1FB681B8D012B32
:10116C001DD1FB681B681A68FB681B6822F480623F
:10117C001A6072B60023FB61FB681B685B69FB613C
:10118C00FB681B689B69FB61FB69FB681B681A6841
:10119C00FB681B6842F400721A6062B672E1FB686D
:1011AC001B8D022B1DD1FB681B681A68FB681B6822
:1011BC0042F400621A6072B60023BB61FB681B68C4
:1011CC005B69BB61FB681B689B69BB61BB69FB68A6
:1011DC001B681A68FB681B6822F480621A6062B68E
:1011EC0050E1FB681B681A68FB681B6842F480625C
:1011FC001A6000237B61FB681B685B697B61FB6881
:10120C001B689B697B617B693CE1FB681B8D032B35
:10121C0000F2F580FB681B8D012B23D17A6A396BA8
:10122C00F86800F0F3FB0346002B01D001233DE1ED
:10123C00FB681B681A69FB685B6AD2B21A70FB68A0
:10124C005B6A5A1CFB685A62FB681B8D013B9AB2A5
:10125C00FB681A85FB685B8D9BB2013B9AB2FB68FD
:10126C005A850FE1FB681B8D022B50D17B6A0093D2
:10127C003B6B00220649F86800F070FA0346002B1D
:10128C0008D0012312E100BF020010000000FFFF94
:10129C000400010072B6FB681B681A68FB681B68C7
:1012AC0042F400721A60FB681B681A69FB685B6A7F
:1012BC00D2B21A70FB685B6A5A1CFB685A62FB68F4
:1012CC001B8D013B9AB2FB681A85FB685B8D9BB248
:1012DC00013B9AB2FB685A8562B6FB681B681A69B7
:1012EC00FB685B6AD2B21A70FB685B6A5A1CFB68BB
:1012FC005A62FB681B8D013B9AB2FB681A85FB682E
:10130C005B8D9BB2013B9AB2FB685A85BAE07B6A53
:10131C0000933B6B00226749F86800F01FFA034604
:10132C00002B01D00123C1E0FB681B681A68FB6825
:10133C001B6822F480621A6072B6FB681B681A691B
:10134C00FB685B6AD2B21A70FB685B6A5A1CFB685A
:10135C005A62FB681B8D013B9AB2FB681A85FB68CD
:10136C005B8D9BB2013B9AB2FB685A857B6A0093FA
:10137C003B6B00224F49F86800F0F0F90346002B54
:10138C0001D0012392E0FB681B681A68FB681B689C
:10139C0042F400721A60FB681B681A69FB685B6A8E
:1013AC00D2B21A70FB685B6A5A1CFB685A62FB6803
:1013BC001B8D013B9AB2FB681A85FB685B8D9BB257
:1013CC00013B9AB2FB685A8562B6FB681B681A69C6
:1013DC00FB685B6AD2B21A70FB685B6A5A1CFB68CA
:1013EC005A62FB681B8D013B9AB2FB681A85FB683D
:1013FC005B8D9BB2013B9AB2FB685A8542E07A6ADC
:10140C00396BF86800F002FB0346002B01D0012376
:10141C004CE0FB681B681A69FB685B6AD2B21A70F5
:10142C00FB685B6A5A1CFB685A62FB681B8D013BAC
:10143C009AB2FB681A85FB685B8D9BB2013B9AB232
:10144C00FB685A85FB681B685B6903F00403042B7B
:10145C0018D1FB681B681A69FB685B6AD2B21A70F8
:10146C00FB685B6A5A1CFB685A62FB681B8D013B6C
:10147C009AB2FB681A85FB685B8D9BB2013B9AB2F2
:10148C00FB685A85FB681B8D002B7FF4BEAEFB6896
:10149C00202283F83D20FB68002283F83E20FB6865
:1014AC00002283F83C20002300E002231846283752
:1014BC00BD4680BD0400010080B483B000AF7860ED
:1014CC007B6893F83D30DBB218460C37BD4680BCC8
:1014DC00704780B483B000AF78607B6893F83E307F
:1014EC00DBB218460C37BD4680BC704780B483B065
:1014FC0000AF78607B681B6C18460C37BD4680BC0F
:10150C007047000080B588B002AFF8607A603B602D
:10151C000B467B81FB68DB6A7B617B69082B06D001
:10152C007B69012B03D07B6913F5803F08D1FB68E5
:10153C001B681A68FB681B6842F480721A600BE027
:10154C00FB681B6B122B07D1FB681B681A68FB68C6
:10155C001B6842F480721A603B6800937B6800221F
:10156C004FF00111F86800F0F9F80346002B01D098
:10157C00012335E0FB681B69B3F5804F08D17B89EB
:10158C00DBB21A46FB681B6802F0FE021A611BE014
:10159C007B89DB11DBB203F00603DBB263F00F03D4
:1015AC00DAB2FB681B681A613B687A680E49F86806
:1015BC0000F02BF90346002B01D0012310E07B89AE
:1015CC00DAB2FB681B681A613B687A680749F868ED
:1015DC0000F01BF90346002B01D0012300E000238F
:1015EC0018461837BD4680BD0800010002000100F6
:1015FC0080B588B002AFF8607A603B600B467B81A7
:10160C00FB68DB6A7B61FB681B681A68FB681B68FC
:10161C0042F480621A607B69082B06D07B69012B2F
:10162C0003D07B6913F5803F08D1FB681B681A68EF
:10163C00FB681B6842F480721A600BE0FB681B6B42
:10164C00112B07D1FB681B681A68FB681B6842F4F6
:10165C0080721A603B6800937B6800224FF0011186
:10166C00F86800F07BF80346002B01D001236DE0F5
:10167C00FB681B69B3F5804F08D17B89DBB243F063
:10168C000103DAB2FB681B681A6153E07B89DB113A
:10169C00DBB203F00603DBB263F00F03DAB2FB68D4
:1016AC001B681A613B687A682A49F86800F0ADF843
:1016BC000346002B01D0012348E07B89DAB2FB689A
:1016CC001B681A613B687A682349F86800F09DF83A
:1016DC000346002B01D0012338E000233B61FB685B
:1016EC001B685B693B61FB681B689B693B613B69E1
:1016FC00FB681B681A68FB681B6842F480721A60EE
:10170C003B6800937B6800224FF00111F86800F0F1
:10171C0025F80346002B01D0012317E07B89DB1150
:10172C00DBB203F00603DBB263F00E03DAB2FB6844
:10173C001B681A613B687A680749F86800F065F81D
:10174C000346002B01D0012300E000231846183774
:10175C00BD4680BD080001000200010080B584B0C8
:10176C0000AFF860B9603B601346FB7125E03B6845
:10177C00B3F1FF3F21D0FEF799FF0246BB69D31AA4
:10178C003A689A4202D33B68002B16D1FB680022C0
:10179C001A63FB68202283F83D20FB68002283F843
:1017AC003E20FB681B6C43F02002FB681A64FB684C
:1017BC00002283F83C20012323E0BB681B0CDBB226
:1017CC00012B0DD1FB681B685B69DA43BB681340C6
:1017DC009BB2002B0CBF01230023DBB21A460CE09A
:1017EC00FB681B689B69DA43BB6813409BB2002BF8
:1017FC000CBF01230023DBB21A46FB799A42B6D008
:10180C00002318461037BD4680BD80B584B000AFAC
:10181C00F860B9607A603B6051E0FB681B685B69FB
:10182C0003F48063B3F5806F23D1FB681B681A68DF
:10183C00FB681B6842F400721A60FB681B686FF44B
:10184C0080625A61FB6800221A63FB68202283F8CD
:10185C003D20FB68002283F83E20FB681B6C43F0A4
:10186C000402FB681A64FB68002283F83C20012305
:10187C0046E07B68B3F1FF3F21D0FEF717FF02462D
:10188C003B68D31A7A689A4202D37B68002B16D134
:10189C00FB6800221A63FB68202283F83D20FB685A
:1018AC00002283F83E20FB681B6C43F02002FB688F
:1018BC001A64FB68002283F83C20012320E0BB68FB
:1018CC001B0CDBB2012B0CD1FB681B685B69DA4388
:1018DC00BB6813409BB2002B14BF01230023DBB267
:1018EC000BE0FB681B689B69DA43BB6813409BB237
:1018FC00002B14BF01230023DBB2002B8DD100235E
:10190C0018461037BD4680BD80B584B000AFF86076
:10191C00B9607A602DE0F86800F0CEF80346002B31
:10192C0001D001232DE0BB68B3F1FF3F21D0FEF7BE
:10193C00BDFE02467B68D31ABA689A4202D3BB68D2
:10194C00002B16D1FB6800221A63FB68202283F857
:10195C003D20FB68002283F83E20FB681B6C43F0A3
:10196C002002FB681A64FB68002283F83C200123E8
:10197C0007E0FB681B685B6903F08003802BCAD10E
:10198C00002318461037BD4680BD80B584B000AF2B
:10199C00F860B9607A602DE0F86800F08DF80346C5
:1019AC00002B01D001232DE0BB68B3F1FF3F21D008
:1019BC00FEF77CFE02467B68D31ABA689A4202D3C1
:1019CC00BB68002B16D1FB6800221A63FB6820222F
:1019DC0083F83D20FB68002283F83E20FB681B6CDB
:1019EC0043F02002FB681A64FB68002283F83C2059
:1019FC00012307E0FB681B685B6903F00403042BFD
:101A0C00CAD1002318461037BD4680BD80B584B0BE
:101A1C0000AFF860B9607A6042E0FB681B685B69F4
:101A2C0003F01003102B19D1FB681B686FF0100228
:101A3C005A61FB6800221A63FB68202283F83D2060
:101A4C00FB68002283F83E20FB681A6CFB681A6462
:101A5C00FB68002283F83C20012329E0FEF726FED8
:101A6C0002467B68D31ABA689A4202D3BB68002B31
:101A7C0016D1FB6800221A63FB68202283F83D20F4
:101A8C00FB68002283F83E20FB681B6C43F02002AD
:101A9C00FB681A64FB68002283F83C20012307E0F2
:101AAC00FB681B685B6903F04003402BB5D1002336
:101ABC0018461037BD4680BD80B483B000AF786047
:101ACC007B681B685B6903F48063B3F5806F1BD183
:101ADC007B681B686FF480625A617B6800221A6312
:101AEC007B68202283F83D207B68002283F83E200F
:101AFC007B681B6C43F004027B681A647B680022D1
:101B0C0083F83C20012300E0002318460C37BD4627
:101B1C0080BC704780B586B000AF78607B68002BC6
:101B2C0001D101236CE27B681B6803F00103002BDD
:101B3C0000F08780924B5B6803F00C03042B0CD0F5
:101B4C008F4B5B6803F00C03082B12D18C4B5B683A
:101B5C0003F48033B3F5803F0BD1894B1B6803F43E
:101B6C000033002B6CD07B685B68002B68D10123A1
:101B7C0046E27B685B68B3F5803F06D1804B1B68FF
:101B8C007F4A43F4803313602EE07B685B68002B44
:101B9C000CD17B4B1B687A4A23F480331360784B4F
:101BAC001B68774A23F4802313601DE07B685B6815
:101BBC00B3F5A02F0CD1724B1B68714A43F48023F0
:101BCC0013606F4B1B686E4A43F4803313600BE059
:101BDC006B4B1B686A4A23F480331360684B1B6899
:101BEC00674A23F4802313607B685B68002B13D057
:101BFC00FEF75CFD386108E0FEF758FD02463B69D4
:101C0C00D31A642B01D90323FAE15D4B1B6803F44F
:101C1C000033002BF0D014E0FEF748FD386108E0EB
:101C2C00FEF744FD02463B69D31A642B01D903230A
:101C3C00E6E1534B1B6803F40033002BF0D100E0BA
:101C4C0000BF7B681B6803F00203002B63D04C4B76
:101C5C005B6803F00C03002B0BD0494B5B6803F063
:101C6C000C03082B1CD1464B5B6803F48033002B10
:101C7C0016D1434B1B6803F00203002B05D07B6885
:101C8C001B69012B01D00123BAE13D4B1B6823F0EA
:101C9C00F8027B685B69DB00394913430B603AE05F
:101CAC007B681B69002B20D0364B01221A60FEF793
:101CBC00FDFC386108E0FEF7F9FC02463B69D31ADB
:101CCC00022B01D903239BE12D4B1B6803F002036C
:101CDC00002BF0D02A4B1B6823F0F8027B685B6961
:101CEC00DB00274913430B6015E0264B00221A60DA
:101CFC00FEF7DCFC386108E0FEF7D8FC02463B69D5
:101D0C00D31A022B01D903237AE11D4B1B6803F074
:101D1C000203002BF0D17B681B6803F00803002B37
:101D2C003AD07B689B69002B19D0174B01221A60A3
:101D3C00FEF7BCFC386108E0FEF7B8FC02463B69D4
:101D4C00D31A022B01D903235AE10D4B5B6A03F022
:101D5C000203002BF0D0012000F0C6FA1CE00A4B65
:101D6C0000221A60FEF7A2FC38610FE0FEF79EFC21
:101D7C0002463B69D31A022B08D9032340E100BF6A
:101D8C000010024000004242800442429E4B5B6ABB
:101D9C0003F00203002BE9D17B681B6803F00403FA
:101DAC00002B00F0A6800023FB75974BDB6903F03A
:101DBC008053002B0DD1944BDB69934A43F0805335
:101DCC00D361914BDB6903F08053BB60BB6801238B
:101DDC00FB758E4B1B6803F48073002B18D18B4B57
:101DEC001B688A4A43F480731360FEF75FFC38610A
:101DFC0008E0FEF75BFC02463B69D31A642B01D961
:101E0C000323FDE0814B1B6803F48073002BF0D09F
:101E1C007B68DB68012B06D17B4B1B6A7A4A43F04B
:101E2C00010313622DE07B68DB68002B0CD1764B31
:101E3C001B6A754A23F001031362734B1B6A724AC7
:101E4C0023F0040313621CE07B68DB68052B0CD1C8
:101E5C006D4B1B6A6C4A43F0040313626A4B1B6A9A
:101E6C00694A43F0010313620BE0674B1B6A664A35
:101E7C0023F001031362644B1B6A634A23F00403CF
:101E8C0013627B68DB68002B15D0FEF70FFC386102
:101E9C000AE0FEF70BFC02463B69D31A41F288328A
:101EAC00934201D90323ABE0574B1B6A03F00203A7
:101EBC00002BEED014E0FEF7F9FB38610AE0FEF7D8
:101ECC00F5FB02463B69D31A41F28832934201D9A1
:101EDC00032395E04C4B1B6A03F00203002BEED15D
:101EEC00FB7D012B05D1484BDB69474A23F080531E
:101EFC00D3617B68DB69002B00F08180424B5B680F
:101F0C0003F00C03082B61D07B68DB69022B46D1F4
:101F1C003F4B00221A60FEF7C9FB386108E0FEF760
:101F2C00C5FB02463B69D31A022B01D9032367E098
:101F3C00354B1B6803F00073002BF0D17B681B6AD8
:101F4C00B3F5803F08D1304B5B6823F400327B68DB
:101F5C009B682D4913434B602B4B5B6823F4741225
:101F6C007B68196A7B685B6A0B43274913434B6098
:101F7C00274B01221A60FEF799FB386108E0FEF747
:101F8C0095FB02463B69D31A022B01D9032337E098
:101F9C001D4B1B6803F00073002BF0D02FE01C4B83
:101FAC0000221A60FEF782FB386108E0FEF77EFB28
:101FBC0002463B69D31A022B01D9032320E0124BB2
:101FCC001B6803F00073002BF0D118E07B68DB6911
:101FDC00012B01D1012313E00B4B5B68FB60FB6809
:101FEC0003F480327B681B6A9A4206D1FB6803F4C7
:101FFC0070127B685B6A9A4201D0012300E00023D7
:10200C0018461837BD4680BD0010024000700040D5
:10201C006000424280B584B000AF786039607B6864
:10202C00002B01D10123D0E06A4B1B6803F007039E
:10203C003A689A4210D9674B1B6823F0070265492E
:10204C003B6813430B60634B1B6803F007033A6850
:10205C009A4201D00123B8E07B681B6803F00203AD
:10206C00002B20D07B681B6803F00403002B05D0E9
:10207C00594B5B68584A43F4E06353607B681B68B8
:10208C0003F00803002B05D0534B5B68524A43F412
:10209C0060535360504B5B6823F0F0027B689B6885
:1020AC004D4913434B607B681B6803F00103002B05
:1020BC0040D07B685B68012B07D1474B1B6803F44E
:1020CC000033002B15D101237FE07B685B68022B6A
:1020DC0007D1414B1B6803F00073002B09D101237E
:1020EC0073E03D4B1B6803F00203002B01D101236D
:1020FC006BE0394B5B6823F003027B685B68364905
:10210C0013434B60FEF7D2FAF8600AE0FEF7CEFA02
:10211C000246FB68D31A41F28832934201D9032359
:10212C0053E02D4B5B6803F00C027B685B689B00F3
:10213C009A42EBD1274B1B6803F007033A689A428B
:10214C0010D2244B1B6823F0070222493B6813432F
:10215C000B60204B1B6803F007033A689A4201D0CE
:10216C00012332E07B681B6803F00403002B08D0CA
:10217C00194B5B6823F4E0627B68DB6816491343F8
:10218C004B607B681B6803F00803002B09D0124BD3
:10219C005B6823F460527B681B69DB000E491343B8
:1021AC004B6000F021F801460B4B5B681B0903F0F8
:1021BC000F030A4AD35C21FA03F3094A1360094B53
:1021CC001B681846FEF730FA002318461037BD4638
:1021DC0080BD00BF0020024000100240B423000864
:1021EC00000000200400002090B48AB000AF2A4BFD
:1021FC003C1D0FCB84E80F00284B1B883B80002331
:10220C00FB610023BB6100237B6200237B61002305
:10221C003B62234B5B68FB61FB6903F00C03042BF3
:10222C0002D0082B03D02DE01E4B3B622DE0FB6946
:10223C009B0C03F00F0307F12802134413F8243C02
:10224C007B61FB6903F48033002B13D0144B5B6868
:10225C005B0C03F0010307F12802134413F8283C2C
:10226C00BB617B690F4A02FB03F2BB69B2FBF3F360
:10227C007B6204E07B690C4A02FB03F37B627B6AA2
:10228C003B6202E0074B3B6200BF3B6A18462837B3
:10229C00BD4690BC704700BFA0230008B0230008C7
:1022AC000010024000127A0000093D0080B400AF1B
:1022BC00024B1B681846BD4680BC704700000020CE
:1022CC0080B500AFFFF7F2FF0146054B5B681B0AB8
:1022DC0003F00703034AD35C21FA03F3184680BDCD
:1022EC0000100240C423000880B485B000AF7860B1
:1022FC000A4B1B680A4AA2FB03235B0A7A6802FB9F
:10230C0003F3FB6000BFFB685A1EFA60002BF9D187
:10231C0000BF1437BD4680BC704700BF00000020D2
:10232C00D34D621070B500250C4E0D4CA41BA4109F
:10233C00A54209D100F022F800250A4E0A4CA41B34
:10234C00A410A54205D170BD56F82530984701352B
:10235C00EEE756F8253098470135F2E7CC23000814
:10236C00CC230008CC230008D023000803460244E9
:10237C00934200D1704703F8011BF9E7F8B500BF91
:10238C00F8BC08BC9E467047F8B500BFF8BC08BC4A
:04239C009E467047A2
:1023A00002030405060708090A0B0C0D0E0F101096
:1023B0000102000000000000000000000102030410
:0C23C000060708090000000001020304E9
:0423CC0031010008D3
:0423D0000D010008F3
:0C23D4000024F4001000000001000000D4
:04000005080005BD2D
:00000001FF
